:020000040800F2
:1000000000000220A9510008A9210008AB21000826
:10001000AD210008AF210008B12100080000000058
:10002000000000000000000000000000B3210008F4
:10003000B521000800000000B7210008B921000820
:10004000F9510008F9510008F9510008F951000868
:10005000F9510008F9510008F9510008F951000858
:10006000F9510008F9510008F9510008F951000848
:10007000C1210008F9510008F9510008F9510008A0
:10008000F9510008F9510008F9510008000000007A
:10009000000000000000000000000000F95100080E
:1000A000F9510008F9510008F9510008F951000808
:1000B000F9510008F9510008F9510008D121000850
:1000C000F9510008F9510008F9510008F9510008E8
:1000D000F9510008F9510008F9510008000000002A
:1000E000F9510008F9510008F9510008000000001A
:1000F000000000000000000000000000F9510008AE
:1001000000000000F9510008F9510008F9510008F9
:1001100000000000000000000000000000000000DF
:10012000F9510008F9510008F9510008F951000887
:10013000F95100080000000000000000000000006D
:10014000000000000000000000000000F95100085D
:10015000F9510008F9510008F9510008F951000857
:10016000F9510008F95100080000000000000000EB
:10017000000000000000000000000000000000007F
:1001800000000000F951000800000000000000001D
:08019000F9510008F9510008C3
:1001A00010B5054C237833B9044B13B10448AFF3B1
:1001B00000800123237010BDF40100200000000026
:1001C000D872000808B5034B1BB103490348AFF3CD
:1001D000008008BD00000000F8010020D87200086F
:1001E00081F0004102E000BF83F0004330B54FEAE8
:1001F00041044FEA430594EA050F08BF90EA020F55
:100200001FBF54EA000C55EA020C7FEA645C7FEAE7
:10021000655C00F0E2804FEA5454D4EB5555B8BF0A
:100220006D420CDD2C4480EA020281EA030382EA7B
:10023000000083EA010180EA020281EA0303362D0D
:1002400088BF30BD11F0004F4FEA01314FF4801CE0
:100250004CEA113102D0404261EB410113F0004FF2
:100260004FEA03334CEA133302D0524263EB4303A9
:1002700094EA050F00F0A780A4F10104D5F1200E47
:100280000DDB02FA0EFC22FA05F2801841F10001A2
:1002900003FA0EF2801843FA05F359410EE0A5F176
:1002A00020050EF1200E012A03FA0EFC28BF4CF0A7
:1002B000020C43FA05F3C01851EBE37101F000455D
:1002C00007D54FF0000EDCF1000C7EEB00006EEB6A
:1002D0000101B1F5801F1BD3B1F5001F0CD34908F4
:1002E0005FEA30004FEA3C0C04F101044FEA44524B
:1002F00012F5800F80F09A80BCF1004F08BF5FEAD2
:10030000500C50F1000041EB045141EA050130BDB1
:100310005FEA4C0C404141EB010111F4801FA4F154
:100320000104E9D191F0000F04BF01460020B1FAA9
:1003300081F308BF2033A3F10B03B3F120020CDAE1
:100340000C3208DD02F1140CC2F10C0201FA0CF0BF
:1003500021FA02F10CE002F11402D8BFC2F1200C24
:1003600001FA02F120FA0CFCDCBF41EA0C019040DA
:10037000E41AA2BF01EB0451294330BD6FEA040423
:100380001F3C1CDA0C340EDC04F11404C4F120020E
:1003900020FA04F001FA02F340EA030021FA04F320
:1003A00045EA030130BDC4F10C04C4F1200220FA77
:1003B00002F001FA04F340EA0300294630BD21FAB5
:1003C00004F0294630BD94F0000F83F4801306BF7B
:1003D00081F480110134013D4EE77FEA645C18BF6F
:1003E0007FEA655C29D094EA050F08BF90EA020F06
:1003F00005D054EA000C04BF1946104630BD91EAFE
:10040000030F1EBF0021002030BD5FEA545C05D100
:100410004000494128BF41F0004130BD14F580043F
:100420003CBF01F5801130BD01F0004545F0FE41B3
:1004300041F470014FF0000030BD7FEA645C1ABFE8
:10044000194610467FEA655C1CBF0B46024650EA1F
:10045000013406BF52EA033591EA030F41F400214B
:1004600030BD00BF90F0000F04BF0021704730B5D1
:100470004FF4806404F132044FF000054FF00001A6
:1004800050E700BF90F0000F04BF0021704730B567
:100490004FF4806404F1320410F0004548BF40423C
:1004A0004FF000013EE700BF42004FEAE2014FEA91
:1004B00031014FEA02701FBF12F07F4393F07F4F6C
:1004C00081F06051704732F07F4208BF704793F06F
:1004D0007F4F04BF41F40021704730B54FF4607482
:1004E00001F0004521F000411CE700BF50EA010285
:1004F00008BF704730B54FF000050AE050EA01022E
:1005000008BF704730B511F0004502D5404261EB9D
:1005100041014FF4806404F132045FEA915C3FF4DE
:10052000D8AE4FF003025FEADC0C18BF03325FEA7B
:10053000DC0C18BF033202EBDC02C2F1200300FA2C
:1005400003FC20FA02F001FA03FE40EA0E0021FA51
:1005500002F11444BDE600BF70B54FF0FF0C4CF43F
:10056000E06C1CEA11541DBF1CEA135594EA0C0FF1
:1005700095EA0C0F00F0DEF82C4481EA030621EA2C
:100580004C5123EA4C5350EA013518BF52EA033567
:1005900041F4801143F4801338D0A0FB02CE4FF019
:1005A0000005E1FB02E506F00042E0FB03E54FF049
:1005B0000006E1FB03569CF0000F18BF4EF0010E41
:1005C000A4F1FF04B6F5007F64F5407404D25FEA3D
:1005D0004E0E6D4146EB060642EAC62141EA5551F0
:1005E0004FEAC52040EA5E504FEACE2EB4F1FD0C32
:1005F00088BFBCF5E06F1ED8BEF1004F08BF5FEAB0
:10060000500E50F1000041EB045170BD06F0004661
:1006100046EA010140EA020081EA0301B4EB5C040E
:10062000C2BFD4EB0C0541EA045170BD41F4801106
:100630004FF0000E013C00F3AB8014F1360FDEBF2B
:10064000002001F0004170BDC4F10004203C35DA07
:100650000C341BDC04F11404C4F1200500FA05F38A
:1006600020FA04F001FA05F240EA020001F000422B
:1006700021F0004110EBD37021FA04F642EB0601A1
:100680005EEA430E08BF20EAD37070BDC4F10C04CB
:10069000C4F1200500FA04F320FA05F001FA04F28F
:1006A00040EA020001F0004110EBD37041F100017B
:1006B0005EEA430E08BF20EAD37070BDC4F1200586
:1006C00000FA05F24EEA020E20FA04F301FA05F2EE
:1006D00043EA020321FA04F001F0004121FA04F296
:1006E00020EA020000EBD3705EEA430E08BF20EA66
:1006F000D37070BD94F0000F0FD101F000464000A0
:1007000041EB010111F4801F08BF013CF7D041EA21
:10071000060195F0000F18BF704703F00046520025
:1007200043EB030313F4801F08BF013DF7D043EAF6
:100730000603704794EA0C0F0CEA135518BF95EAAC
:100740000C0F0CD050EA410618BF52EA4306D1D133
:1007500081EA030101F000414FF0000070BD50EA52
:10076000410606BF1046194652EA430619D094EADC
:100770000C0F02D150EA013613D195EA0C0F05D1C6
:1007800052EA03361CBF104619460AD181EA03011A
:1007900001F0004141F0FE4141F470014FF00000D2
:1007A00070BD41F0FE4141F4780170BD70B54FF06D
:1007B000FF0C4CF4E06C1CEA11541DBF1CEA1355ED
:1007C00094EA0C0F95EA0C0F00F0A7F8A4EB0504CF
:1007D00081EA030E52EA03354FEA013100F08880C6
:1007E0004FEA03334FF0805545EA131343EA12638F
:1007F0004FEA022245EA111545EA10654FEA002644
:100800000EF000419D4208BF964244F1FD0404F5FC
:10081000407402D25B084FEA3202B61A65EB030558
:100820005B084FEA32024FF480104FF4002CB6EB15
:10083000020E75EB030E22BFB61A754640EA0C0095
:100840005B084FEA3202B6EB020E75EB030E22BFD5
:10085000B61A754640EA5C005B084FEA3202B6EB16
:10086000020E75EB030E22BFB61A754640EA9C00D5
:100870005B084FEA3202B6EB020E75EB030E22BFA5
:10088000B61A754640EADC0055EA060E18D04FEA63
:10089000051545EA16754FEA06164FEAC30343EA03
:1008A00052734FEAC2025FEA1C1CC0D111F4801FD0
:1008B0000BD141EA00014FF000004FF0004CB6E7C9
:1008C00011F4801F04BF01430020B4F1FD0C88BF68
:1008D000BCF5E06F3FF6AFAEB5EB030C04BFB6EB73
:1008E000020C5FEA500C50F1000041EB045170BD66
:1008F0000EF0004E4EEA113114EB5C04C2BFD4EB93
:100900000C0541EA045170BD41F480114FF0000E16
:10091000013C90E645EA060E8DE60CEA135594EA92
:100920000C0F08BF95EA0C0F3FF43BAF94EA0C0F95
:100930000AD150EA01347FF434AF95EA0C0F7FF40A
:1009400025AF104619462CE795EA0C0F06D152EA5E
:1009500003353FF4FDAE1046194622E750EA410642
:1009600018BF52EA43067FF4C5AE50EA41047FF453
:100970000DAF52EA43057FF4EBAE12E74FEA4102B6
:10098000B2F1E04324BFB3F5001CDCF1FE5C0DD9ED
:1009900001F0004C4FEAC0024CEA5070B2F1004F37
:1009A00040EB830008BF20F00100704711F0804F3A
:1009B00021D113F13872BCBF01F00040704741F4FF
:1009C00080114FEA5252C2F11802C2F1200C10FA03
:1009D0000CF320FA02F018BF40F001004FEAC123E7
:1009E0004FEAD32303FA0CFC40EA0C0023FA02F38B
:1009F0004FEA4303CCE77FEA625307D150EA013361
:100A00001EBF4FF0FE4040F44000704701F0004030
:100A100040F0FE4040F40000704700BF53B94AB9AF
:100A2000002908BF00281CBF4FF0FF314FF0FF30F6
:100A300000F072B9ADF1080C6DE904CE00F006F8D3
:100A4000DDF804E0DDE9022304B070472DE9F0474A
:100A5000089E04468846002B4BD18A42154667D92A
:100A6000B2FA82F24AB1C2F1200701FA02F320FA87
:100A700007F7954047EA030894404FEA154E230CC8
:100A8000B8FBFEF71FFA85FC0EFB178843EA084304
:100A900007FB0CF1994209D9EB1807F1FF3080F000
:100AA0001B81994240F21881023F2B445B1AA4B289
:100AB000B3FBFEF00EFB103344EA034400FB0CFCD6
:100AC000A44509D92C1900F1FF3380F00781A44512
:100AD00040F2048102382C4440EA0740A4EB0C04A5
:100AE00000271EB1D4400023C6E900433946BDE8C3
:100AF000F0878B4209D9002E00F0EB800027C6E971
:100B0000000138463946BDE8F087B3FA83F7002F75
:100B100047D18B4202D3824200F2FA80841A61EB01
:100B2000030301209846002EE0D0C6E90048DDE727
:100B300002B9FFDEB2FA82F2002A40F08F80491B30
:100B40004FEA154E1FFA85F80127B1FBFEFC230C76
:100B50000EFB1C1143EA014308FB0CF1994207D933
:100B6000EB180CF1FF3002D2994200F2CD8084469E
:100B7000591AA3B2B1FBFEF00EFB101443EA044471
:100B800008FB00F8A04507D92C1900F1FF3302D269
:100B9000A04500F2B6801846A4EB080440EA0C40D9
:100BA0009FE7C7F1200CBB4022FA0CFE4EEA030E71
:100BB00001FA07F420FA0CF521FA0CF34FEA1E486B
:100BC0002543B3FBF8F92C0C08FB19331FFA8EFAF6
:100BD00044EA034309FB0AF49C4202FA07F200FAD2
:100BE00007F10BD91EEB030309F1FF3080F087807A
:100BF0009C4240F28480A9F1020973441B1BADB2F0
:100C0000B3FBF8F008FB103345EA034400FB0AFA93
:100C1000A24508D91EEB040400F1FF336BD2A245B4
:100C200069D90238744440EA0940A0FB0289A4EB68
:100C30000A044C45C2464B4654D351D0002E69D0CD
:100C4000B1EB0A0564EB030404FA0CFCFD40FC4024
:100C50004CEA0505C6E90054002747E7C2F1200326
:100C600020FA03F7954001FA02F021FA03F34FEA64
:100C7000154E3843010CB3FBFEF71FFA85F80EFB47
:100C8000173341EA034107FB08F38B4204FA02F4ED
:100C900007D9691807F1FF3C2FD28B422DD9023FAB
:100CA0002944CB1A81B2B3FBFEF00EFB103341EAAC
:100CB000034100FB08F38B4207D9691800F1FF3CA0
:100CC00017D28B4215D902382944C91A40EA07477E
:100CD0003BE73746304609E70746E7E61846FBE6B6
:100CE0004145ABD2B8EB020A69EB0E02013813465C
:100CF000A4E76046E9E7184695E76746D1E78146ED
:100D00007CE702382C4447E7ACF1020C2B442FE778
:100D1000384608E73746E9E6704700BF034613F850
:100D2000012B002AFBD1181A01387047000000007F
:100D300001F0FF01102A2BDB10F0070F08D010F88C
:100D4000013B013A8B422DD010F0070F42B3F6D190
:100D5000F0B441EA012141EA014122F007047FF0A9
:100D600000070023F0E80256083C85EA010586EA00
:100D7000010685FA47F5A3FA87F586FA47F6A5FA3C
:100D800087F68EB9EED1F0BC01F0FF0102F0070248
:100D900032B110F8013B013A83EA010313B1F8D1F3
:100DA0000020704701387047002D06BF35460338D4
:100DB000073815F0010F07D1013015F4807F02BF0D
:100DC000013015F4C03F0130F0BC0138704700BF5E
:100DD0004FF0FF3C06E000BF4FF0010C02E000BF07
:100DE0004FF0010C4DF804CD4FEA410C7FEA6C5CEA
:100DF0004FEA430C18BF7FEA6C5C1BD001B050EA8D
:100E0000410C0CBF52EA430C91EA030F02BF90EA77
:100E1000020F0020704710F1000F91EA030F58BF36
:100E2000994208BF90422CBFD8176FEAE37040F098
:100E3000010070474FEA410C7FEA6C5C02D150EA36
:100E4000013C07D14FEA430C7FEA6C5CD6D152EAF1
:100E5000033CD3D05DF8040B704700BF84461046B6
:100E600062468C461946634600E000BF01B5FFF7B5
:100E7000B7FF002848BF10F1000F01BD4DF808ED85
:100E8000FFF7F4FF0CBF012000205DF808FB00BF56
:100E90004DF808EDFFF7EAFF34BF012000205DF8B0
:100EA00008FB00BF4DF808EDFFF7E0FF94BF0120FD
:100EB00000205DF808FB00BF4DF808EDFFF7CEFFFE
:100EC00094BF012000205DF808FB00BF4DF808ED3D
:100ED000FFF7C4FF34BF012000205DF808FB00BF0E
:100EE0004FEA410C7FEA6C5C02D150EA013C0AD126
:100EF0004FEA430C7FEA6C5C02D152EA033C02D118
:100F00004FF0000070474FF0010070474FEA410278
:100F100012F5001215D211D56FF47873B3EB62524B
:100F200012D94FEAC12343F0004343EA505311F072
:100F3000004F23FA02F018BF404270474FF0000004
:100F4000704750EA013005D111F0004008BF6FF042
:100F5000004070474FF00000704700BF30B589B0C7
:100F600000240394049405940694079400941D4B64
:100F70001A6B42F004021A631A6B02F00402009228
:100F8000009A01941A6B42F080021A631A6B02F005
:100F900080020192019A02941A6B42F001021A63D4
:100FA0001B6B03F001030293029B0F4D224620218D
:100FB000284601F0B5FC4FF4005303934FF404139B
:100FC0000493059403A9094801F0D2FB202303935D
:100FD000012304930594069403A9284601F0C8FB55
:100FE00009B030BD00380240000002400008024055
:100FF00000B583B000210191094B1A6B42F4001235
:101000001A631B6B03F400130193019B0A460C2027
:1010100001F084F90C2001F0B5F903B05DF804FB90
:10102000003802402DE9F04186B006AD002305F8F6
:10103000013D1A4E4FF47A770297012401940095EE
:1010400023466B22D021304602F068FC07238DF83E
:10105000173002970194009523461922D02130467B
:1010600002F05CFC4FF018088DF81780029701948D
:10107000009523461C22D021304602F04FFC8DF80B
:10108000178002970194009523461B22D0213046F9
:1010900002F044FC06B0BDE8F08100BF70070020FC
:1010A00070B586B0294D322302930124019404AE19
:1010B000009623463A22D021284602F0E3FC64231E
:1010C000029306230193009623463B22D021284613
:1010D00002F0D8FC9DF810309DF8110040EA032082
:1010E00000B21B4B18809DF812209DF8135045EA62
:1010F00002252DB25D809DF814209DF8154044EA2C
:10110000022424B29C80FFF7BDF900224FF07D53EA
:10111000FFF722FAFFF732FC0E4E30602846FFF749
:10112000B1F900224FF07D53FFF716FAFFF726FCC6
:1011300070602046FFF7A6F900224FF07D53FFF7BD
:101140000BFAFFF71BFCB06006B070BD7007002003
:10115000100200205008002070B586B04FF47A735A
:1011600002930623019304AB009301234322D02171
:10117000214802F087FC9DF810309DF8110040EAEC
:10118000032000B21D4BD8809DF812209DF813500B
:1011900045EA02252DB21D819DF814209DF81540C9
:1011A00044EA022424B25C81FFF76CF910A3D3E96E
:1011B0000023FFF7FBFAFFF7E1FB114EF060284632
:1011C000FFF760F90AA3D3E90023FFF7EFFAFFF76F
:1011D000D5FB30612046FFF755F905A3D3E900237D
:1011E000FFF7E4FAFFF7CAFB706106B070BD00BFFD
:1011F0006666666666663040700700201002002052
:10120000500800207047000070B500F059FE584BA0
:101210001B7B002B4AD00021084600F037FD554BC0
:101220005869FFF741F9544C02460B465349204692
:1012300004F072FC524D01222946204600F07AFD4E
:101240000C21002000F022FD4E4BDA8B4E49204647
:1012500004F062FC01222946204600F06BFD1821B3
:10126000002000F013FD494BDA8B4949204604F079
:1012700053FC01222946204600F05CFD2421002079
:1012800000F004FD3A4E3069FFF70EF902460B46B6
:101290004049204604F040FC01222946204600F047
:1012A00049FD0023337300F0E7FD70BD00210846BF
:1012B00000F0ECFC2F4E3068FFF7F6F82E4C02469B
:1012C0000B463549204604F027FC2D4D01222946C6
:1012D000204600F02FFD0C21002000F0D7FC7068A4
:1012E000FFF7E2F802460B462C49204604F014FCB6
:1012F00001222946204600F01DFD1821002000F0A3
:10130000C5FCB068FFF7D0F802460B4624492046DA
:1013100004F002FC01222946204600F00BFD2421A6
:10132000002000F0B3FC7069FFF7BEF802460B46E0
:101330001C49204604F0F0FB01222946204600F01B
:10134000F9FC3021002000F0A1FC3069FFF7ACF877
:1013500002460B461449204604F0DEFB01222946D2
:10136000204600F0E7FC024B01221A739BE700BF06
:101370001002002050080020E4070020609B0008B5
:1013800010000020680800206C9B0008C4070020A3
:101390007C9B00088C9B0008249B0008309B000865
:1013A0003C9B0008489B0008549B000872B6FEE76F
:1013B00000B583B01148124B0360124B4360002309
:1013C0008360C3604FF48042026143618361C36103
:1013D000036201F0A7FF70B9002301930A4B1A6B57
:1013E00042F002021A631B6B03F002030193019B9C
:1013F00003B05DF804FBFFF7D9FF00BF70070020C2
:1014000000540040801A06000038024008B50A481F
:101410000A4B03604FF4E133436000238360C360F1
:1014200003610C2242618361C36103F08DFE00B948
:1014300008BDFFF7BBFF00BF0C08002000440040C0
:1014400000B595B03022002108A803F001FF002369
:101450000393049305930693079301931F4A116C1A
:1014600041F080511164126C02F080520192019A95
:1014700002931B4B1A6842F440421A601B6803F443
:1014800040430293029B012308934FF4A023099346
:1014900002230E934FF480030F93082310934FF40D
:1014A000A873119304231293139308A803F074FAFA
:1014B00080B90F23039302210491002305934FF475
:1014C00080520692079303A803F0CEFC20B915B012
:1014D0005DF804FBFFF76AFFFFF768FF0038024082
:1014E0000070004038B500F0C7FEFFF7A9FFFFF716
:1014F00035FDFFF77DFDFFF75BFFFFF787FFFFF788
:1015000091FD3449344800F087F9012000F0ECF8EF
:10151000032000F0FAF80F21084600F007F9032035
:1015200000F0ACF803E04FF47A7000F0D1FE00F068
:10153000CFFC0028F7D00021084600F0A7FB274C7D
:1015400001222146264800F0F5FB1E210A2000F06A
:101550009DFB01222146234800F0ECFB00F08CFCAF
:101560004FF4FA6000F0B4FE0721002000F024FCE4
:101570004FF4FA6000F0ACFE0721002000F048FCB8
:101580004FF4FA6000F0A4FE00F06EFC00F098FC4E
:1015900000F072FC00252C4600F094FE401B05284C
:1015A0000BD800F08FFE001BB0F57A7FF4D900F065
:1015B00089FE0446FFF728FEEEE700F083FE0546AD
:1015C000FFF76EFDFFF7C8FD00F006FB064B83ED4D
:1015D000040AE6E70C08002070070020080000203D
:1015E0009C9B0008A49B00081002002030B585B029
:1015F00004AA02F8010D0A4D4FF0FF3400940123B4
:10160000AE21286801F068FF2868009401230DF1DD
:101610000E02AE2102F01AF89DF80E0005B030BDA2
:10162000D008002000B585B08DF80C008DF80D10A5
:10163000064B18684FF0FF330093022303AAAE2134
:1016400001F04AFF05B05DF804FB00BFD0080020A0
:1016500008B5890101F0400141EAC01149B25001C9
:1016600000F020000843190101F01001014301F0CE
:10167000F0010120FFF7D6FF08BD000010B50446B9
:10168000184B18700620FFF7B1FF41B221F0070197
:1016900004F007000143C9B2032C11D001F0F70197
:1016A0000620FFF7BFFF0F4B1B78032B0BD0022B3D
:1016B00010D000231A4619461846FFF7C9FF10BD7F
:1016C00041F00801ECE700231A4601211846FFF714
:1016D000BFFFF4E700231A4619460120FFF7B8FFC1
:1016E000EDE700BF140A002010B504460720FFF7FD
:1016F0007DFFA40004F01C0420F01C0040B2044351
:10170000E1B20720FFF78EFF10BD10B50446072099
:10171000FFF76CFF04F0030420F0030040B2044321
:10172000E1B20720FFF77EFF10BD000008B5054BB2
:101730001870054B197041EA0011C9B20920FFF772
:1017400071FF08BD1C0A0020CA08002008B500214E
:101750000220FFF767FF00210420FFF763FF00214D
:101760000320FFF75FFF08BD70B594B04024224608
:10177000002104A803F06CFD14AA052302F8413DE2
:101780001A4E4FF0FF3500950123AE21306801F06D
:10179000A3FE30680095234604AAAE2101F056FF4F
:1017A00000231FE014AA1A4412F8404C591C14AA32
:1017B000114411F8402C980842EA04220C4921F8FF
:1017C00010209A1C14A90A4412F8404CD91C14AADF
:1017D000114411F8402C42EA0422064921F8102055
:1017E0000433DBB23F2BDDD914B070BDD00800202C
:1017F00068080020C407002010B50024054B1C70A9
:1018000021462046FFF792FF21460120FFF70AFFFD
:1018100010BD00BF140A002008B5044B1860044B2B
:101820001960FFF7E9FFFFF791FF08BDD00800201E
:10183000180A0020000000002DE9F8432DED028B6E
:10184000002446E0284B33F81480284D95ED008A9B
:1018500018EE100AFEF728FE21A3D3E90023FEF7B5
:101860007BFE06460F464046FEF70CFE32463B46E0
:10187000FEF7BCFCFFF782F807EE900A37EEC88A45
:10188000A6001B4B334483ED008A2860194B33F8C4
:10189000147095ED018A18EE100AFEF705FE10A3EC
:1018A000D3E90023FEF758FE804689463846FEF706
:1018B000E9FD42464B46FEF799FCFFF75FF807EE5D
:1018C000900A37EEC88A0C4B334483ED008A686077
:1018D00001340F2CB6DDBDEC028BBDE8F88300BFF0
:1018E000666666666666EE3F680800202402002091
:1018F000D4080020C40700205409002000220F2A29
:101900004EDC10B416E0274BD3ED245A87EE256A3F
:1019100036EE667A90002449014481ED007A87EE24
:10192000A57A77EE666A214B0344C3ED006A013263
:101930000F2A32DC1B4B94001919D1ED027A93ED7A
:10194000127A37EE677AD1ED136AD3ED237A77EE08
:10195000E67A17482044D0ED006A37EE267A83ED08
:10196000127A1448204490ED006A77EE867AC3ED2F
:10197000237AC1ED026A81ED136A93ED246AF3EED6
:10198000005AB4EEE56AF1EE10FABCD5F7EE005A53
:1019900036EE256A83ED246AB5E75DF8044B70479F
:1019A000704700BF2402002014090020880800208E
:1019B000D4080020540900202DE970432DED028B3E
:1019C00000242BE01C4E96ED258AA5001B4B2B44D2
:1019D0001868FEF769FD14A3D3E90023FEF7BCFDE8
:1019E0008046894618EE100AFEF75EFD10A3D3E983
:1019F0000023FEF7B1FD02460B4640464946FEF77E
:101A0000F5FBFEF7BBFF07EE900AC6F8940038EE30
:101A1000278A0B4B2B4483ED008A01340F2CD1DD38
:101A2000BDEC028BBDE8708348457C5EEF63CF3F21
:101A30005CDDC150084EE03F240200201409002064
:101A40009409002008B52DED028BDFED5C7AB4EE31
:101A5000E70AF1EE10FA13DCB0EE408A584B93F827
:101A60009830012B2AD0D3B1022B00F08780BCEE36
:101A7000C80A534B10EE102AA3F89A2000200BE05E
:101A80004F4B002083F89800A3F89A00C3F89C00FD
:101A9000C3F8A00083F8A400BDEC028B08BDDFED05
:101AA000497AB4EEE70AF1EE10FAE0DB444B01228A
:101AB00083F89820002283F8A420D8E7404BB3F89D
:101AC0009A3007EE903AF8EEE77AF4EEC07AF1EE4B
:101AD00010FA1BD43A4AD2F8A030D2F89C10C2F8BF
:101AE0009C305B1A18D007EE903AF8EE677ADFED7B
:101AF000366A86EEA77A324B93F8A51003EB810382
:101B000083ED2A7A0023DFED317A10E000F0DAFB72
:101B10002B4BC3F8A000AAE79FED2C7AEBE7284AED
:101B200002EB830292ED2A7A77EE877A0133092B52
:101B3000F5DD4B1CDBB22249254AA2FB0302D20889
:101B400002EB820250001B1A81F8A53091F8D030C8
:101B5000092B02D8013381F8D030194B93F8D020EB
:101B600007EE102AB8EEC77AC7EE876A194AC2EDA7
:101B7000006A022283F8982001208DE7104BB3F809
:101B80009A3007EE903AF8EEE77AF4EEC07AF1EE8A
:101B900010FA05DD0A4A92F8A430013382F8A43025
:101BA000DFED087AB4EEE78AF1EE10FA7FF55FAF69
:101BB000034B002283F8982059E700BF0000FA4445
:101BC000240200200000C84200606A4700000000B4
:101BD000CDCCCCCCCC08002010B5FFF7C5FDFFF76D
:101BE0002BFEFFF78BFEFFF7E7FE00240F2C0DDC2A
:101BF000084B03EB840393ED000AFFF723FF08B9BA
:101C00000134F3E7044B93ED000A10BD9FED030A86
:101C1000FBE700BF94090020CC0800200000000072
:101C200008B530B1FF214FF48062034803F010FB88
:101C300008BD0021F7E700BF000300207F2816D869
:101C40003F2914D8104B1B7913B1B2FA82F2520912
:101C5000012A0DD0CB0800EBC31001F007010122CF
:101C60008A40094B1844017A21EA02010172704747
:101C7000CB0800EBC31001F007018A40024B184467
:101C8000017A114301727047F8020020014B18805D
:101C900059807047F80200202DE9F843244B1B8837
:101CA0000C7823447F2B3EDC214B5B884C7823440B
:101CB0003F2B3BDC90460D468146002620E01C4B26
:101CC0001888598831442044B8FA88F2520989B2F8
:101CD00080B2FFF7B3FF01342B78A3420FD907FA84
:101CE00004F313F4004FEAD0114B1888598831449B
:101CF0002044424689B280B2FFF7A0FFEBE70136ED
:101D00006A78B24208D96968A9F1200302FB03632B
:101D100031F813700024DFE72B78054A11880B4453
:101D20001380484600E00020BDE8F8830020FBE770
:101D3000F802002070B504460E46154623784BB1D4
:101D40002A4631461846FFF7A7FF2378984201D16B
:101D50000134F3E7184670BD30B5C3B08DF80810F4
:101D6000002104E04C1C555C02A90D55E1B28CB277
:101D70009C42F7D301330A2200929BB202AA014689
:101D8000024801F0A9FB43B030BD00BF700700203E
:101D900000B585B08DF80C108DF80D200A23009346
:101DA000022303AA0146034801F096FB05B05DF843
:101DB00004FB00BF7007002038B505460C462622FC
:101DC00000217820FFF7E4FF002211467820FFF77A
:101DD000DFFF2A4600217820FFF7DAFF00221146B4
:101DE0007820FFF7D5FF224600217820FFF7D0FFAB
:101DF000002211467820FFF7CBFFFF220021782038
:101E0000FFF7C6FF2F2200217820FFF7C1FF38BD62
:101E100038B505460C46272200217820FFF7B8FF89
:101E2000002211467820FFF7B3FF2A4600217820D0
:101E3000FFF7AEFF002211467820FFF7A9FF2246E8
:101E400000217820FFF7A4FF002211467820FFF739
:101E50009FFFFF2200217820FFF79AFF2F22002109
:101E60007820FFF795FF38BD08B52E220021782095
:101E7000FFF78EFF08BD000010B500241AE0A4F1A2
:101E80005002D2B200217820FFF782FF00221146D3
:101E90007820FFF77DFF102200217820FFF778FFE0
:101EA0008023064A02EBC41240217820FFF754FF3A
:101EB0000134E4B2072CE2D910BD00BF00030020BA
:101EC00008B50020FFF7ACFEFFF7D6FF08BD000005
:101ED00008B544F6206301227821554801F03AFF05
:101EE000002840F0A38040F6C41300E0013B002B23
:101EF000FCD1AE2200217820FFF74AFF20220021EA
:101F00007820FFF745FF102200217820FFF740FFDF
:101F1000B02200217820FFF73BFFC8220021782063
:101F2000FFF736FF002211467820FFF731FF10221D
:101F300000217820FFF72CFF402200217820FFF7B6
:101F400027FF812200217820FFF722FFFF220021B6
:101F50007820FFF71DFFA12200217820FFF718FF4E
:101F6000A62200217820FFF713FFA8220021782065
:101F7000FFF70EFF3F2200217820FFF709FFA42280
:101F800000217820FFF704FFD32200217820FFF7FB
:101F9000FFFE002211467820FFF7FAFED52200212D
:101FA0007820FFF7F5FEF02200217820FFF7F0FE01
:101FB000D92200217820FFF7EBFE22220021782091
:101FC000FFF7E6FEDA2200217820FFF7E1FE122279
:101FD00000217820FFF7DCFEDB2200217820FFF7CC
:101FE000D7FE202200217820FFF7D2FE8D2200218B
:101FF0007820FFF7CDFE142200217820FFF7C8FEDD
:10200000AF2200217820FFF7C3FE2E220021782086
:10201000FFF7BEFE0020FFF703FEFFF72DFF054B85
:1020200000221A805A800120587108BD0020FCE768
:1020300070070020F802002000B583B00021009155
:102040000C4B5A6C42F480425A645A6C02F480423F
:102050000092009A01911A6C42F080521A641B6C33
:1020600003F080530193019B072000F045F903B072
:102070005DF804FB0038024070B588B0002303937C
:1020800004930593069307930268264B9A4201D066
:1020900008B070BD044600250195234E336B43F014
:1020A00002033363336B03F002030193019BC023EC
:1020B000039312230493032306930423079303A992
:1020C0001A4800F055FB0295336C43F40013336457
:1020D000336C03F400130293029B1548154B036005
:1020E000456040238360C5604FF4806303614561B0
:1020F00085614FF48073C3614FF48033036245629E
:1021000000F0CAF958B90A4B63639C630022114678
:102110001F2000F003F91F2000F034F9B8E7FFF7A3
:1021200045F9F0E700540040003802400004024046
:10213000100700202860024000B589B000230393F7
:1021400004930593069307930268154B9A4202D0B5
:1021500009B05DF804FB0021019103F5FA331A6C14
:1021600042F400321A641A6C02F400320192019AAD
:1021700002911A6B42F001021A631B6B03F0010318
:102180000293029B0C2303930223049303230693DD
:102190000723079303A9034800F0EAFAD8E700BF32
:1021A0000044004000000240FEE7FEE7FEE7FEE7D5
:1021B000FEE770477047704708B500F077F808BD34
:1021C00008B5024800F0E2F908BD00BF1007002082
:1021D00008B5024802F010FB08BD00BF70070020E0
:1021E00008B503460B4A126842B10A4A1068034414
:1021F0006A46934206D8074A136008BD054A064955
:102200001160F2E702F0FAFF0C2303604FF0FF3099
:10221000F3E700BF00070020280A0020034AD2F895
:10222000883043F47003C2F88830704700ED00E056
:1022300010B504460E4B18784FF47A73B3FBF0F3E5
:102240000C4A1068B0FBF3F000F0AAF868B90F2C44
:1022500001D901200AE0002221464FF0FF3000F0B2
:102260005DF8034B5C60002000E0012010BD00BF62
:102270001C0000201800002008B50B4B1A6842F41F
:1022800000721A601A6842F480621A601A6842F496
:1022900080721A60032000F02FF80020FFF7C8FFBB
:1022A000FFF7CAFE002008BD003C0240034A116847
:1022B000034B1B780B441360704700BF200A0020BB
:1022C0001C000020014B1868704700BF200A002046
:1022D00038B50446FFF7F6FF0546B4F1FF3F02D0DC
:1022E000044B1B781C44FFF7EDFF401BA042FAD3C0
:1022F00038BD00BF1C000020074AD36823F4E06308
:102300001B041B0C000200F4E060184340F0BF60A7
:1023100040F40030D060704700ED00E030B4174B5F
:10232000DB68C3F30223C3F10704042C28BF042491
:102330001D1D062D18D9033B4FF0FF3505FA04F497
:1023400021EA0401994005FA03F322EA0303194341
:1023500000280BDB0901C9B200F1604000F56140C3
:1023600080F8001330BC70470023E5E700F00F0051
:102370000901C9B2024B1954F4E700BF00ED00E0B7
:1023800014ED00E0002807DB00F01F0240090123E4
:102390009340024A42F82030704700BF00E100E05D
:1023A0000138B0F1807F0AD2064B5860064AF0210E
:1023B00082F823100020986007221A6070470120DD
:1023C000704700BF10E000E000ED00E00268D3B20B
:1023D000103B0B49A1FB03131B090A49C95CC165EA
:1023E000032B06D822F47F7222F003028265806DEF
:1023F000704722F47F7222F0030204328265F6E70E
:10240000ABAAAAAA1C9B0008836A826992B9012B15
:102410000AD01BB1022B01D000207047C36A13F011
:10242000807F2CD100207047C36AB3F1C07F28D0D1
:1024300000207047B2F5005F05D0022B29D9032B8D
:1024400015D000207047032B03D8DFE803F01C04ED
:102450001C0A00207047C36A13F0807F15D100204A
:102460007047C36AB3F1C07F11D000207047C36AC0
:1024700013F0807F01D001207047002070470120B9
:1024800070470120704701207047012070470120EC
:10249000704701207047000070B50446FFF712FF37
:1024A000002C5BD00546022384F83530002384F8E5
:1024B00034302268136823F00103136023681A681C
:1024C00012F0010F0AD0FFF7FDFE401B0528F5D9D9
:1024D00020236365032084F8350070BD1A68204806
:1024E00010406168A2680A43E1680A4321690A430F
:1024F00061690A43A1690A43E1690A43216A0A43FF
:102500000243616A04291ED01A602668756925F0A5
:102510000705636A1D43042B07D1A36A1D43E36AC1
:102520001BB12046FFF770FF90B975612046FFF799
:102530004DFFE26D3F2393408360002060650123DF
:1025400084F83530C9E7E16A206B01430A43DBE7D1
:1025500040236365012084F83500BEE70120BCE715
:102560003F8010F090F83530DBB2022B03D080238F
:10257000436501207047052380F8353002681368F1
:1025800023F001031360002070470000F0B583B012
:10259000044600230193724B1D68724BA3FB053563
:1025A000AD0A876D3E68C26D08239340334210D058
:1025B00003681A6812F0040F0BD01A6822F00402A4
:1025C0001A60C26D08239340BB60436D43F0010362
:1025D0004365E26D01239340334209D0226852697A
:1025E00012F0800F04D0BB60636D43F0020363659B
:1025F000E26D04239340334209D02268126812F03E
:10260000020F04D0BB60636D43F004036365E26DA9
:1026100010239340334224D02268126812F0080F2E
:102620001FD0BB6023681A6812F4802F0DD01B687E
:1026300013F4002F04D1236C9BB12046984710E07F
:10264000A36C73B1204698470BE01A6812F4807FA0
:1026500003D11A6822F008021A60236C0BB12046DD
:102660009847E26D20239340334255D02268126888
:1026700012F0100F50D0BB6094F83530DBB2052B50
:102680000ED023681A6812F4802F33D01B6813F41D
:10269000002F2AD1636C002B3ED0204698473BE0A8
:1026A0002268136823F0160313602268536923F02D
:1026B00080035361236CA3B12268136823F00803DD
:1026C0001360E26D3F239340BB60012384F83530F3
:1026D000002384F83430236D002B3FD020469847E8
:1026E0003CE0A36C002BE7D1EBE7E36BA3B1204602
:1026F000984711E01A6812F4807F09D11A6822F015
:1027000010021A60012384F83530002384F8343035
:10271000E36B0BB120469847636DFBB1636D13F01B
:10272000010F17D0052384F835302268136823F091
:1027300001031360019B01330193AB4204D823686A
:102740001B6813F0010FF5D1012384F83530002305
:1027500084F83430E36C0BB12046984703B0F0BDE9
:1027600018000020B5814E1B90F83500704700001E
:1027700000230F2B00F2CA80F0B482B05DE08668BF
:102780005F000324BC4026EA0406CC68BC40344306
:102790008460466826EA02064C68C4F300129A4038
:1027A0003243426056E0DC08083450F8247003F0ED
:1027B000070296000F22B24027EA02070A69B240D8
:1027C0003A4340F8242059E0042200E00022B240BD
:1027D0003A4302344E4E46F824204E4A1468EA43E7
:1027E00002EA04064F6817F4803F01D045EA040668
:1027F000484C2660646802EA04064F6817F4003FFC
:1028000001D045EA0406434C6660A46802EA040667
:102810004F6817F4801F01D045EA04063D4CA660BE
:10282000E46822404E6816F4001F01D045EA040215
:10283000384CE26001330F2B65D801229A400C68B6
:1028400004EA0205AA42F5D14C6804F00304013CF5
:10285000012C94D94A6802F00302032A09D0C46803
:102860005E000322B24024EA02048A68B240224396
:10287000C2604A6802F00302022A94D004685E0033
:102880000322B24024EA02044A6802F00302B24082
:10289000224302604A6812F4403FCBD000220192EA
:1028A0001D4A546C44F480445464526C02F48042D7
:1028B0000192019A9C08A61C154A52F8267003F052
:1028C000030296000F22B24027EA0207134A904201
:1028D0003FF47CAF02F5806290420ED002F5806238
:1028E00090420CD002F5806290420AD002F58062DC
:1028F00090423FF469AF072269E7012267E70222AD
:1029000065E7032263E702B0F0BC7047704700BF81
:1029100000380140003C0140003802400000024005
:1029200012B90904816170478161704790F83E30A7
:10293000DBB2402B0AD00369B3F5804F15D0036D8D
:10294000002B34D0036D012B3BD07047036D2BB9A6
:10295000436C026803F0FE0313617047436C026826
:1029600043F00103DBB21361704790F83D30DBB2F6
:10297000212B0FD0436C026843F00103DBB21361DB
:10298000436B6BB1DB6B5BB10268536843F400636C
:1029900053607047436C026803F0FE031361EFE776
:1029A000836B002BD1D0DB6B002BEDD1CDE7436CDB
:1029B000C3F3C813026803F0060343F0F003136186
:1029C0007047436CC3F3C813026803F0060343F077
:1029D000F1031361B9E7436C0268DBB21361436B27
:1029E0003BB1DB6B2BB10268536843F40063536067
:1029F0007047836B002BFBD0DB6B002BF3D1F7E729
:102A000010B48BB090F83E30DAB2C16A046B90F823
:102A10003D30DBB2222B0BD00023099303685A69A7
:102A200009929B690993099B0BB05DF8044B7047B1
:102A3000036D0BB9402A17D0036D1BB90369B3F5B9
:102A4000404F19D0438D9BB2002B25D102930368D0
:102A50005A6902929A690292029A1A6842F40072C2
:102A60001A6000230365DFE7009303685A69009248
:102A70009B690093009BD7E70023019303685A6981
:102A800001929A690192019A1A6842F480721A605E
:102A9000036D01330365C7E7438D9BB2012B25D03E
:102AA000438D9BB2022B7BD00268136843F4806392
:102AB000136003685A6812F4006F0ED011F5803F5E
:102AC00007D0012905D0082903D0102901D02029D9
:102AD00003D15A6842F480525A6000230893036875
:102AE0005A6908929B690893089BBAE711F5803FE1
:102AF00011D0082934D0202932D0122C2ED004290C
:102B000040D002293ED010293CD00268136823F43B
:102B1000806313603BE00268136823F480631360F2
:102B200003685A6812F4006F0CD01A6822F48062AD
:102B30001A600023039303685A6903929B69039305
:102B4000039B8EE7002204925A6904929A690492C8
:102B5000049A1A6842F400721A6082E70129CED002
:102B60000268136823F480631360002306930368EC
:102B70005A6906929A690692069A1A6842F4007295
:102B80001A606EE70268136843F4806313600023E1
:102B9000059303685A6905929B690593059B60E755
:102BA00004290ED002290CD010290AD0026813681B
:102BB00023F4806313600268136843F400631360B6
:102BC00004E00268136843F48063136003685A6882
:102BD00012F4006F0ED011F5803F07D0012905D007
:102BE000082903D0102901D0202903D15A6842F4C2
:102BF00080525A600023079303685A6907929B69C1
:102C00000793079B2DE7438D9BB253B1426A03683C
:102C100012781A61436A01334362438D013B9BB2D0
:102C200043857047438D9BB253B103681A69436A69
:102C30001A70436A01334362438D013B9BB2438563
:102C40007047000082B0002301930E4B1B68DB0825
:102C50000D4AA2FB03231B0A03EB83030193019B91
:102C6000013B0193019B33B103681B6813F4007FA0
:102C7000F5D1002004E0036C43F02003036401203D
:102C800002B070471800002089B5F81403685A692B
:102C900012F4806F11D06FF480625A6100230363D5
:102CA000202280F83D2080F83E30026C42F0040281
:102CB000026480F83C300120704700207047C36AEE
:102CC000B3F52A0F04D0C36AB3F12A4F03D070477B
:102CD0000123C36270470823C362F8E7F8B50646CC
:102CE0000C4617461D4622E0FFF7ECFA069BC01A79
:102CF000A84200D8DDB900233363202286F83D20A6
:102D000086F83E30326C42F02002326486F83C3065
:102D100001201AE033685B6924EA03039BB2B3FA2B
:102D200083F35B099F420FD1B5F1FF3FDCD1C4F3C0
:102D30000743012BEED033689B6924EA03039BB25F
:102D4000B3FA83F35B09EDE70020F8BDF8B504465C
:102D50000D4616461F463CE01A6842F400721A609F
:102D600023686FF480625A6100232363202284F871
:102D70003D2084F83E30226C42F00402226484F844
:102D80003C30012033E0FFF79DFAC01BB04200D871
:102D9000FEB900232363202284F83D2084F83E30CE
:102DA000226C42F02002226484F83C3001201EE0B4
:102DB00023685B6925EA03039BB2003318BF012334
:102DC000A3B123685A6912F4806FC5D1B6F1FF3FF1
:102DD000D9D1C5F30743012BEAD023689B6925EAC3
:102DE00003039BB2003318BF0123E9E70020F8BDBD
:102DF000F0B583B004460F4615461E46C36A082B3D
:102E00000DD0012B0BD013F5803F08D0036B122B94
:102E10000AD10268136843F48073136004E02268E7
:102E2000136843F48073136000962B4600224FF022
:102E300001112046FFF752FF58B123681B6813F4B5
:102E4000807F2BD04FF4007323640323184603B014
:102E5000F0BD2369B3F5804F0ED1236807F0FE075C
:102E60001F6133462A460F492046FFF76FFF03468E
:102E70000028EBD00123E9E7FB11226803F00603E9
:102E800043F0F003136133462A4607492046FFF713
:102E90005DFF28B92368FFB21F61E2E70323D5E78E
:102EA0000123D3E702000100080001002DE9F041F1
:102EB00084B004460D4616461F46C26A01680B6878
:102EC00043F480630B60082A0DD0012A0BD012F561
:102ED000803F08D0036B112B0AD10268136843F4BA
:102EE0008073136004E02268136843F480731360F6
:102EF0000097334600224FF001112046FFF7EEFE07
:102F000060B123681B6813F4807F5BD04FF40073BB
:102F100023640323184604B0BDE8F0812369B3F5A8
:102F2000804F0FD1236845F00105EDB21D613B468E
:102F3000324626492046FFF709FF03460028E9D01C
:102F40000123E7E74FEAE51808F00608236848F090
:102F5000F0021A613B4632461D492046FFF7F6FE55
:102F600008B10123D6E72368EDB21D613B46324626
:102F700016492046FFF7EAFE08B10123CAE70022FE
:102F80000392236859690391996903910399196818
:102F900041F480711960009733464FF001112046CB
:102FA000FFF79CFE48B123681B6813F4807F0BD0A9
:102FB0004FF4007323640323ACE7226848F0F10365
:102FC0001361B4E70323A5E70323A3E7020001008D
:102FD0000800010070B504460D46164623685B697B
:102FE00013F0800F1CD12046FFF750FED0B9B5F189
:102FF000FF3FF3D0FFF766F9801BA84201D8002DF0
:10300000ECD100232363202284F83D2084F83E3055
:10301000226C42F02002226484F83C30012000E05F
:10302000002070BD0120FCE72DE9F04184B004468A
:10303000884616461F460B9D0268136843F480734A
:10304000136000950A9B00224FF00111FFF746FE26
:1030500060B123681B6813F4807F4FD04FF4007376
:1030600023640323184604B0BDE8F081226808F009
:10307000FE0313612B460A9A21492046FFF766FE9C
:1030800008B10123EEE70023039323685A690392F2
:103090009B690393039B2A460A992046FFF79AFFF0
:1030A000034658B1236C042B01D00123DAE72268D0
:1030B000136843F4007313600123D3E7012F0ED08C
:1030C0002368320A1A612A460A992046FFF782FFCE
:1030D000034678B1236C042B05D00123C2E7226894
:1030E000F6B21661BEE72268136843F400731360FA
:1030F0000123B7E72268F6B21661B3E70323B1E70D
:10310000020001002DE9F04184B004460E46174646
:1031100098460B9D0268136843F48063136002684D
:10312000136843F48073136000950A9B00224FF0EC
:103130000111FFF7D3FD68B123681B6813F4807F8A
:1031400000F089804FF4007323640323184604B011
:10315000BDE8F081F6B2236806F0FE021A612B4644
:103160000A9A3F492046FFF7F1FD08B10123EDE738
:103170000023039323685A6903929B690393039B7B
:103180002A460A992046FFF725FF58B1236C042BE5
:1031900001D00123DAE72268136843F40073136057
:1031A0000123D3E7B8F1010F0DD12368FFB21F61EE
:1031B0002A460A992046FFF70DFF20B3236C042B03
:1031C0001AD00123C2E723683A0A1A612A460A99EB
:1031D0002046FFF7FFFE58B1236C042B01D00123DA
:1031E000B4E72268136843F4007313600123ADE76A
:1031F0002368FFB21F61DBE72268136843F40073A2
:1032000013600123A2E72268136843F480731360FC
:1032100000950A9B00224FF001112046FFF75EFD4A
:1032200048B123681B6813F4807F16D04FF40073F5
:10323000236403238AE7236846F001061E612B46B8
:103240000A9A07492046FFF781FD034600283FF40C
:103250007DAF01237AE7032378E7032376E700BFF6
:103260000200010070B504460D46164623685B69EE
:1032700013F0040F1CD12046FFF708FDD0B9B5F1BB
:10328000FF3FF3D0FFF71EF8801BA84201D8002DA6
:10329000ECD100232363202284F83D2084F83E30C3
:1032A000226C42F02002226484F83C30012000E0CD
:1032B000002070BD0120FCE770B505460C4616469F
:1032C0002B685A6912F0400F29D15A6912F0100F79
:1032D00015D1FEF7F7FF801BA04201D8002CEFD1DB
:1032E00000232B63202285F83D2085F83E302A6C90
:1032F00042F020022A6485F83C30012070BD6FF056
:1033000010025A6100232B63202285F83D2085F8A6
:103310003E302A6C2A6485F83C300120EEE700201C
:10332000ECE70000002800F0C880F8B5044690F8EB
:103330003D30002B75D0242384F83D30226813687B
:1033400023F0010313602268136843F40043136001
:103350002268136823F40043136001F03BFE6268A7
:10336000584B9A4262D8584B98428CBF0023012395
:10337000002B40F0A480554BA3FB00239B0C21683D
:103380004A6822F03F021A434A6025682A6A22F0FE
:103390003F0266684B498E424ED8013313432B627D
:1033A0002568E96921F44F4121F0FF016368454A2E
:1033B00093424BD801385B00B0FBF3F30133C3F306
:1033C0000B03042B38BF04230B43EB6121680B680C
:1033D00023F0C003E269206A024313430B602168B3
:1033E0008B6823F4034323F0FF032269E068024360
:1033F00013438B602168CB6823F0FF036269A069E7
:1034000002431343CB602268136843F00103136047
:1034100000202064202384F83D30206384F83E009F
:10342000F8BD80F83C30FEF727FE84E7284B984231
:103430008CBF002301239BE74FF4967101FB03F33C
:103440002449A1FB03139B090133A7E7A268BAB97A
:10345000461E03EB4307B6FBF7F60136C6F30B0631
:10346000B6FA86F6760936BBC2B9013803EB4303D8
:10347000B0FBF3F30133C3F30B0242F40043A3E7C1
:10348000461E03EB830707EB8707B6FBF7F601360B
:10349000C6F30B06B6FA86F67609E4E7013803EBC5
:1034A000830303EB8303B0FBF3F20132C2F30B029D
:1034B00042F4404388E7012386E70120704701205A
:1034C000AEE700BFA08601007F841E0083DE1B43A1
:1034D000FF083D00D34D62102DE9F04184B0044651
:1034E0000E4690461F46FEF7EDFE94F83D30DBB2E7
:1034F000202B04D00226304604B0BDE8F0810546FA
:103500000090192301224F492046FFF7E7FB0028CE
:1035100040F0918094F83C30012B00F08E80012324
:1035200084F83C3023681A6812F0010F03D11A683E
:1035300042F001021A602268136823F400631360EA
:10354000212384F83D30102384F83E300023236487
:10355000C4F824806785638D23853B4BE3622B464B
:103560000A9A31462046FFF743FC0646002866D1FA
:103570000023039323685A6903929B690393039B77
:1035800012E0236C042B01D00126B4E722681368F3
:1035900043F4007313600126ADE72A460A992046DA
:1035A000FFF760FE00282CD1238D002B35D02A4652
:1035B0000A992046FFF70EFD0028E2D1626A2368CF
:1035C00012781A61616A4B1C6362638D013B9BB286
:1035D0006385238D013B9BB223852268506910F0DF
:1035E000040FDAD0002BD8D04B781361636A013313
:1035F0006362638D013B9BB26385238D013B238511
:10360000CBE7236C042B01D0012674E722681368F2
:1036100043F40073136001266DE72268136843F4D6
:1036200000731360202384F83D30002384F83E307B
:1036300084F83C305FE702265DE702265BE701265F
:1036400059E700BF020010000000FFFF2DE9F04124
:1036500086B004460E4690461F46FEF733FE94F8A9
:103660003D30DBB2202B04D00226304606B0BDE848
:10367000F08105460090192301229E492046FFF75C
:103680002DFB002840F0348194F83C30012B00F0F1
:103690003781012384F83C3023681A6812F0010F47
:1036A00003D11A6842F001021A602268136823F4F9
:1036B00000631360222384F83D30102384F83E30E9
:1036C00000232364C4F824806785638D23858A4B97
:1036D000E3622B460C9A31462046FFF7E7FB06468D
:1036E000002840F00F81238D5BB9029323685A694B
:1036F00002929A690292029A1A6842F400721A605F
:1037000077E0012B0FD0022B1FD02268136843F4FF
:10371000806313600023059323685A6905929B69AF
:103720000593059B65E02268136823F480631360AA
:103730000023039323685A6903929A690392039AB8
:103740001A6842F400721A6053E02268136823F486
:10375000806313602268136843F4006313600023DE
:10376000049323685A6904929B690493049B40E084
:103770002A460C992046FFF79FFD002840F0C480A0
:1037800023681A69636A1A70636A01336362238D5E
:10379000013B2385638D013B9BB2638529E0009546
:1037A0000C9B002255492046FFF798FA002840F06C
:1037B000AD802268136843F40073136023681A69AC
:1037C000636A1A70626A531C6362238D013B23850E
:1037D000638D013B9BB2638523681B695370636AE9
:1037E00001336362238D013B2385638D013B9BB2D3
:1037F0006385238D002B72D0032B49D8012BB7D0C2
:10380000022BCCD000950C9B00223C492046FFF7B0
:1038100065FA00287CD12268136823F48063136062
:1038200023681A69636A1A70636A01336362238DBD
:10383000013B2385638D013B9BB2638500950C9B07
:1038400000222E492046FFF749FA002862D122685B
:10385000136843F40073136023681A69636A1A706B
:10386000626A531C6362238D013B2385638D013B98
:103870009BB2638523681B695370636A013363627B
:10388000238D013B2385638D013B9BB26385B0E7AC
:103890002A460C992046FFF70FFD00283CD12368EB
:1038A0001A69636A1A70626A531C6362238D013B52
:1038B0002385638D013B9BB263852368596911F0B1
:1038C000040F96D01B695370636A01336362238DC2
:1038D000013B2385638D013B9BB2638589E72023F0
:1038E00084F83D30002384F83E3084F83C30BCE658
:1038F0000226BAE6020010000000FFFF04000100EB
:103900000226B2E60126B0E60126AEE60126ACE6C6
:103910000126AAE60126A8E60126A6E62DE9F04141
:1039200082B004460E4617469846FEF7CBFC94F844
:103930003D30DBB2202B04D00223184602B0BDE894
:10394000F08105460090192301224C492046FFF7DB
:10395000C5F9002840F08B8094F83C30012B00F032
:103960008880012384F83C3023681A6812F0010F24
:1039700003D11A6842F001021A602268136823F426
:1039800000631360212384F83D30402384F83E30E7
:1039900000232364089B6362BDF824306385638D34
:1039A0002385374BE36201950A9B009343463A46D1
:1039B00031462046FFF738FB00285CD1238D002BD1
:1039C00034D02A460A992046FFF704FB10BB626AEE
:1039D000236812781A61616A4B1C6362238D013B74
:1039E0009BB22385628D013A92B26285226850694A
:1039F00010F0040FE2D0002BE0D04B781361636A23
:103A000001336362238D013B2385638D013B9BB2B0
:103A10006385D3E7236C042B01D001238DE7226853
:103A2000136843F400731360012386E72A460A995A
:103A30002046FFF717FC034658B1236C042B01D036
:103A400001237AE72268136843F4007313600123AB
:103A500073E721680A6842F400720A60202284F841
:103A60003D20002284F83E2084F83C2065E70223B4
:103A700063E7022361E701235FE700BF0200100054
:103A80000000FFFF2DE9F04186B004460E461746C0
:103A90009846FEF717FC94F83D30DBB2202B04D09B
:103AA0000226304606B0BDE8F08105460090192395
:103AB00001229E492046FFF711F9002840F0348189
:103AC00094F83C30012B00F03781012384F83C301E
:103AD00023681A6812F0010F03D11A6842F001023C
:103AE0001A602268136823F400631360222384F8A9
:103AF0003D30402384F83E30002323640C9B6362F6
:103B0000BDF834306385638D2385894BE36201956D
:103B10000E9B009343463A4631462046FFF7F2FAA1
:103B20000646002840F00A81238D5BB90293236882
:103B30005A6902929A690292029A1A6842F40072D1
:103B40001A6072E0012B0AD0022B1AD000230593D1
:103B500023685A6905929B690593059B65E0226875
:103B6000136823F4806313600023039323685A6966
:103B700003929A690392039A1A6842F400721A60D7
:103B800053E02268136823F480631360226813688B
:103B900043F4006313600023049323685A6904927A
:103BA0009B690493049B40E02A460E992046FFF748
:103BB00083FB002840F0C48023681A69636A1A7086
:103BC000636A01336362238D013B2385638D013B6F
:103BD0009BB2638529E000950E9B00225549204643
:103BE000FFF77CF8002840F0AD802268136843F4AA
:103BF0000073136023681A69636A1A70626A531C3F
:103C00006362238D013B2385638D013B9BB26385FA
:103C100023681B695370636A01336362238D013B20
:103C20002385638D013B9BB26385238D002B72D06E
:103C3000032B49D8012BB7D0022BCCD000950E9B7B
:103C400000223C492046FFF749F800287CD1226831
:103C5000136823F48063136023681A69636A1A7017
:103C6000636A01336362238D013B2385638D013BCE
:103C70009BB2638500950E9B00222E492046FFF7DC
:103C80002DF8002862D12268136843F40073136092
:103C900023681A69636A1A70626A531C6362238D0F
:103CA000013B2385638D013B9BB2638523681B69C0
:103CB0005370636A01336362238D013B2385638DF7
:103CC000013B9BB26385B0E72A460E992046FFF779
:103CD000F3FA00283CD123681A69636A1A70626A91
:103CE000531C6362238D013B2385638D013B9BB293
:103CF00063852368596911F0040F96D01B695370CE
:103D0000636A01336362238D013B2385638D013B2D
:103D10009BB2638589E7202384F83D30002384F833
:103D20003E3084F83C30BCE60226BAE602001000C1
:103D30000000FFFF040001000226B2E60126B0E603
:103D40000126AEE60126ACE60126AAE60126A8E693
:103D50000126A6E62DE9F04385B004468846914643
:103D60001D46FEF7AFFA94F83D30DBB2202B04D0AD
:103D70000223184605B0BDE8F083064600901923DB
:103D8000012259492046FEF7A9FF002840F0A180F2
:103D900094F83C30012B00F09E80012384F83C30E5
:103DA00023681A6812F0010F03D11A6842F0010269
:103DB0001A602268136823F400631360242384F8D4
:103DC0003D3000232364A3F58033E36201273EE006
:103DD00023681B6813F4807F7FD04FF40073236443
:103DE0000323C6E7A02384F83D3023685A69C2F351
:103DF00040025969C1F3802194F83D30DBB2A02B19
:103E000009D042B939B9FEF75DFA801BA842E9D85A
:103E1000002DEAD1E6E7202384F83D3023685A6973
:103E200012F0020F31D11A6842F400721A6023684E
:103E30006FF480625A610096192301222A492046B4
:103E4000FEF74CFF00284CD101374F4539D222688C
:103E5000136843F48073136000962B4600224FF0E2
:103E600001112046FEF73AFF0028B1D1236808F07F
:103E7000FE021A61FEF726FA064623685A69C2F363
:103E800040025969C1F38021B6E71A6842F4007212
:103E90001A600023039323685A6903929B69039372
:103EA000039B0096192301220F492046FEF716FFB7
:103EB0000346A0B9202284F83D20002284F83C204B
:103EC00057E7202384F83D30002384F83C30012359
:103ED0004FE702234DE702234BE7032349E7012382
:103EE00047E7012345E700BF020010007047704715
:103EF000704708B590F83D30DAB2438D9BB27BB184
:103F0000416A036809781961436A01334362438D4A
:103F1000013B9BB24385438D9BB20BB9292A00D04C
:103F200008BD0268536823F4806353602123036350
:103F3000282380F83D30FFF7DBFFF1E7704708B535
:103F400090F83D30DAB2438D9BB27BB103681969BA
:103F5000436A1970436A01334362438D013B9BB24C
:103F60004385438D9BB20BB92A2A00D008BD026855
:103F7000536823F48063536022230363282380F86B
:103F80003D30FFF7DBFFF1E7704700B583B090F8F5
:103F90003D3003F02803282B0CD000230193026846
:103FA0005169019192690192019A80F83C3003B005
:103FB0005DF804FB0268536823F48063536011F0DA
:103FC000040F0BD0002311F0800F09D1828900214A
:103FD00080F83C101946FFF7D7FFE8E70123F2E726
:103FE000028BF4E77047704708B5C26A90F83D301D
:103FF000DBB2212B00D008BD438D9BB203BB082A46
:1040000004D0202A02D012F5803F25D102685368DF
:1040100023F4E06353600268136843F40073136091
:1040200000230363202380F83D3090F83E30DBB25C
:10403000402B21D0002380F83E30FFF757FFDAE70E
:10404000426A036812781A61436A01334362438DFE
:10405000013B9BB24385CEE70268536823F4E063DB
:10406000536011230363002380F83E30202380F83F
:104070003D30FFF73BFFBEE7002380F83E30FFF7FF
:10408000B2FFB8E708B590F83D30026D9AB9C36C3D
:10409000012B08D0836CC3F3072302681361036DFF
:1040A0000133036508BD836C0268DBB21361036DE5
:1040B00002330365F6E7DBB2026D012A23D0026DFD
:1040C000022AEFD1222B26D0428D92B20AB1212BA7
:1040D0002AD0428D92B2002AE4D1212BE2D102688B
:1040E000536823F4E06353600268136843F4007379
:1040F000136000230363202280F83D2080F83E30C7
:10410000FFF771FFCEE7836C0268DBB21361036DCA
:1041100001330365C6E70268136843F480731360D4
:10412000036D01330365BDE7426A036812781A61C3
:10413000436A01334362438D013B9BB24385B1E740
:1041400010B590F83D30DBB290F83E20D2B2C46A90
:10415000018D09B9212B04D0212B3BD0402A37D027
:1041600010BD082C04D0202C02D014F5803F19D1AA
:104170000268536823F4E06353600268136843F4F1
:104180000073136000230363202380F83D3090F810
:104190003E30DBB2402B15D0002380F83E30FFF7D5
:1041A000A5FEDDE70268536823F4E0635360112342
:1041B0000363002380F83E30202380F83D30FFF772
:1041C00095FECDE7002380F83E30FFF70CFFC7E7F0
:1041D000222BC5D1438D9BB283B190F83E30DBB228
:1041E000402B11D0426A036812781A61436A013386
:1041F0004362438D013B9BB24385B1E7026853683C
:1042000023F480635360ABE7FFF73CFFA8E708B5F2
:10421000C26A438D9BB2042B13D0438D9BB2032BF8
:1042200020D0438D9BB2022B36D003681A69436AB3
:104230001A70436A01334362438D013B9BB243854D
:104240000FE00268536823F48063536003681A69BF
:10425000436A1A70436A01334362438D013B9BB248
:10426000438508BD01684B6823F480634B60042AD2
:1042700006D0022A04D00268136823F48063136016
:1042800003681A69436A1A70436A01334362438DB3
:10429000013B9BB24385E4E7012A0BD0102A09D0E9
:1042A000042A36D0022A34D00268136843F400731B
:1042B000136004E00268136823F4806313600368EA
:1042C0001A69436A1A70426A531C4362438D013B68
:1042D0009BB2438503681B695370436A0133436291
:1042E000438D013B9BB243850268536823F44073BE
:1042F0005360202380F83D3090F83E30DBB2402BF5
:104300000DD0002380F83E3012230363FFF7EFFD4A
:10431000A7E70268136843F480631360CFE70023C4
:1043200080F83E300363FCF76DFF9AE7704790F822
:104330003D30DBB2222B00D07047438D9BB2032B64
:1043400014D903681A69436A1A70436A01334362D5
:10435000438D013B9BB24385438D9BB2032BEBD135
:104360000268536823F4806353607047C26A022A6C
:10437000E2D0012BE0D810B50446FEF763FC68BB21
:104380002268136823F4806313602268536823F45F
:10439000E063536023681A69636A1A70636A0133C1
:1043A0006362638D013B9BB26385202384F83D30BB
:1043B00094F83E30DBB2402B08D0002384F83E3026
:1043C000122323632046FFF792FD10BD002384F8DB
:1043D0003E3023632046FCF715FFF6E7226853685A
:1043E00023F4E063536023681A69636A1A70636A8E
:1043F00001336362638D013B9BB26385202384F8A4
:104400003D30002384F83E302046FFF78FFFDCE785
:104410007047000000B583B000230193806B90F8D3
:104420003D20D2B2324B1B68DB083249A1FB03139B
:104430001B0A03EB8303C3EBC3030193019B43B14B
:10444000019B013B019303681B6813F4007FF5D1C6
:1044500003E0036C43F020030364436B0BB10021C2
:10446000D963836B0BB10021D96301680B6823F416
:1044700080630B6000234385436B0BB100211965FA
:10448000836B0BB10021196501680B6823F00103F0
:104490000B6090F83D30DBB2602B0ED002F02802AA
:1044A000282A14D0202380F83D30002380F83E30A5
:1044B000FFF73CFF03B05DF804FB202380F83D309C
:1044C000002380F83E300364FFF7A2FFF2E70268A2
:1044D000136843F0010313600268136843F48063B8
:1044E000136000230363282380F83D30E0E700BF1A
:1044F0001800002089B5F81410B5044690F83D3036
:10450000DBB290F83E20D2B2102A36D0402A34D006
:1045100003F02802282A38D02268526812F4006F6B
:1045200007D1602B05D0202384F83D30002384F888
:104530003E300023236323685A6812F4006F48D08A
:104540005A6822F400625A60626B92F83530DBB22E
:10455000012B20D0444B1365606BFEF703F8002855
:1045600049D02268136823F001031360202384F8E4
:104570003D30606B036D98473DE0222BC8D1216828
:104580000A6822F400620A60C2E70023236328233A
:1045900084F83D30CFE7A36B334A1A65A06BFDF773
:1045A000E1FF40B323685A6912F0400F05D01A6941
:1045B000636A1A70636A013363622268136823F0C6
:1045C00001031360202384F83D30A06B036D9847EE
:1045D00011E094F83D20D2B2602A1FD05A6912F03F
:1045E000400F05D01A69636A1A70636A0133636207
:1045F0002046FFF79BFE236C13F00F0F04D02268B8
:10460000536823F4E063536094F83D30DBB2226CCE
:1046100012F0040F01D0282B18D010BD202284F8EE
:104620003D20002222645A6912F0400F05D01A6919
:10463000636A1A70636A013363622268136823F045
:10464000010313602046FFF7E3FED4E7074BE36264
:1046500000232363202284F83D2084F83E30204646
:10466000FFF7C0FCD9E700BF154400080000FFFFBA
:1046700030B583B0044690F83D50EDB202685368FF
:1046800023F4E06353600023019303685A690192A5
:104690001A6842F001021A60019B0268136823F451
:1046A0008063136003685A6812F4006F38D0222DBB
:1046B00021D02A2D1FD0426B1268526892B24285D7
:1046C000428D92B21AB1026C42F0040202645A683E
:1046D00022F400625A60606BFEF746F801281FD092
:1046E000636B434A1A65606BFDF73CFFC0B1606BBA
:1046F000036D984714E0A26B1268526892B262850B
:10470000628D92B21AB1226C42F0040222645A689D
:1047100022F400625A60A06BFEF726F8012840D10F
:10472000638D9BB223B323685A6912F0040F09D03A
:104730001A69636A1A70636A01336362638D013BAD
:104740009BB2638523685A6912F0400F09D01A6939
:10475000636A1A70636A01336362638D013B9BB2C3
:104760006385638D9BB21BB1236C43F00403236408
:10477000236C13BB2A2D25D094F83D30DBB2282BB7
:1047800029D0236B222B01D0222D19D100232363A2
:10479000202284F83D2084F83E302046FFF7CEFBEF
:1047A0000EE0A36B124A1A65A06BFDF7DBFE002832
:1047B000B6D0A06B036D9847B2E72046FFF79CFE8A
:1047C00003B030BD00232363282384F83D30204606
:1047D000FFF7B4FBD0E7074BE362002323632022FB
:1047E00084F83D2084F83E302046FFF7FBFBE7E7E6
:1047F000154400080000FFFFF8B50446026855683C
:10480000C66A90F83E30DBB290F83D10C8B2102B6B
:1048100013D0402B11D0236C002B7AD05369002188
:1048200013F0020F78D015F4007F75D0236C03B11C
:1048300091692046FFF7A9FBF8BDD2F818C051696D
:1048400011F0010705D1B6F52A0FF5D0B6F12A4FC0
:10485000F2D017B115F4007F29D111F0080F02D062
:1048600015F4007F2AD111F0020F02D015F4007F59
:1048700028D11CF0040F31D0526812F4006FDBD144
:1048800011F0800F05D015F4806F02D011F0040FE5
:104890001CD011F0040FCFD015F4007FCCD021280C
:1048A00018D0402BC8D12046FFF7ECFBC4E72046C8
:1048B000FEF705FA2046FEF739F8BDE72046FEF779
:1048C0008AF8B9E72046FEF79BF8B5E72046FFF7E0
:1048D00037FCB1E72046FFF787FBADE7536813F4D9
:1048E000006FA9D111F0400F05D015F4806F02D0F0
:1048F00011F0040F09D011F0040F9DD015F4007FC2
:104900009AD02046FFF783FC96E72046FFF70FFD7D
:1049100092E79169536983E713F0100F02D015F401
:10492000007F18D121281AD0292818D013F0400F61
:1049300005D015F4806F02D013F0040F28D013F0C7
:10494000040F3FF479AF15F4007F3FF475AF2046B4
:10495000FEF768F970E72046FFF78AFE6CE713F070
:10496000800F05D015F4806F02D013F0040F0BD028
:1049700013F0040F3FF460AF15F4007F3FF45CAF19
:104980002046FEF740F957E72046FFF7B2FA53E713
:104990002046FFF7D4FA4FE7002800F0E98170B510
:1049A00082B00446036813F0010F3BD0A74B9B680D
:1049B00003F00C03042B2CD0A44B9B6803F00C03D6
:1049C000082B21D06368B3F5803F4FD0B3F5A02FFB
:1049D00052D09E4B1A6822F480321A601A6822F470
:1049E00080221A606368002B50D0FDF76BFC0546EF
:1049F000964B1B6813F4003F14D1FDF763FC401B7A
:104A00006428F5D90320B8E1904B5B6813F4800F5C
:104A1000D8D08E4B1B6813F4003F03D06368002B83
:104A200000F0A881236813F0020F55D0874B9B68D4
:104A300013F00C0F3ED0854B9B6803F00C03082B42
:104A400033D0E368002B68D0814B01221A60FDF758
:104A500039FC05467D4B1B6813F0020F54D1FDF75E
:104A600031FC401B0228F5D9032086E1774A136800
:104A700043F480331360B5E7744B1A6842F4802224
:104A80001A601A6842F480321A60ABE7FDF71AFC2C
:104A900005466E4B1B6813F4003FC3D0FDF712FCB4
:104AA000401B6428F5D9032067E1684B5B6813F469
:104AB000800FC6D1654B1B6813F0020F04D0E3686A
:104AC000012B01D0012058E1604A136823F0F8035C
:104AD000216943EAC1031360236813F0080F40D033
:104AE000636963B35B4B01221A60FDF7EBFB05467C
:104AF000564B5B6F13F0020F33D1FDF7E3FB401B06
:104B00000228F5D9032038E1504A136823F0F8034E
:104B1000216943EAC1031360DEE74D4B00221A60AE
:104B2000FDF7D0FB0546494B1B6813F0020FD3D0AD
:104B3000FDF7C8FB401B0228F5D903201DE1454BBA
:104B400000221A60FDF7BEFB0546404B5B6F13F079
:104B5000020F06D0FDF7B6FB401B0228F5D9032053
:104B60000BE1236813F0040F79D0384B1B6C13F062
:104B7000805F33D100230193344B1A6C42F0805292
:104B80001A641B6C03F080530193019B0125324B87
:104B90001B6813F4807F23D0A368012B34D0052B2E
:104BA00038D02A4B1A6F22F001021A671A6F22F0CE
:104BB00004021A67A368002B36D0FDF783FB064674
:104BC000224B1B6F13F0020F48D1FDF77BFB801BBC
:104BD00041F288339842F3D90320CEE00025D6E78E
:104BE0001D4A136843F480731360FDF76BFB0646A0
:104BF000194B1B6813F4807FCED1FDF763FB801B3C
:104C00000228F5D90320B8E0104A136F43F00103DE
:104C10001367CFE70D4B1A6F42F004021A671A6F41
:104C200042F001021A67C5E7FDF74CFB0646074B49
:104C30001B6F13F0020F11D0FDF744FB801B41F2F4
:104C400088339842F3D9032097E000BF0038024030
:104C500000004742800E474200700040EDB9A36952
:104C6000002B00F08980484A926802F00C02082A62
:104C700051D0022B17D0454B00221A60FDF722FBC2
:104C80000446414B1B6813F0007F42D0FDF71AFB2E
:104C9000001B0228F5D903206FE03B4A136C23F078
:104CA00080531364DBE7394B00221A60FDF70AFBDF
:104CB0000546354B1B6813F0007F06D0FDF702FB5D
:104CC000401B0228F5D9032057E0E369226A134309
:104CD000626A43EA8213A26A5208013A43EA024333
:104CE000E26A43EA0263284A5360284B01221A60B1
:104CF000FDF7E8FA0446244B1B6813F0007F06D149
:104D0000FDF7E0FA001B0228F5D9032035E000206A
:104D100033E0002031E0012B31D01B4B5B6803F402
:104D20008001E269914201D0012026E003F03F02B8
:104D3000216A8A4201D001201FE0616A47F6C072F1
:104D40001A40B2EB811F01D0012016E003F440317C
:104D5000A26A5208013AB1EB024F01D001200CE0E7
:104D600003F07063E26AB3EB026F0AD0012004E043
:104D700001207047012000E0002002B070BD01203A
:104D8000FBE70020F9E700BF00380240600047421F
:104D9000324B9B6803F00C03042B5CD0082B01D032
:104DA0002F4870472DE9F04B2C4B5A6802F03F0218
:104DB0005B6813F4800F2BD0284B5B68C3F3881318
:104DC0001E4600275C010025E41A65EB0705A901D2
:104DD00041EA9461A001001B61EB0501CB0043EAAD
:104DE0005073C400A01943EB07014B0243EAD053B0
:104DF0004402204619460023FBF710FE174B5B6860
:104E0000C3F3014301335B00B0FBF3F0BDE8F08B6B
:104E1000124B5B68C3F388131E4600275C01002514
:104E2000E41A65EB0705A90141EA9461A001001BA2
:104E300061EB0501CB0043EA5073C400A01943EBBA
:104E400007018B0243EA905384022046194600234F
:104E5000FBF7E4FDD2E70348704700BF003802408B
:104E60000024F40000127A00002800F09E8070B543
:104E70000446504B1B6803F007038B4209D2CBB2A8
:104E80004C4A1370136803F007038B4201D00120D2
:104E900070BD236813F0020F17D013F0040F04D075
:104EA000454A936843F4E0539360236813F0080F76
:104EB00004D0414A936843F4604393603E4A936848
:104EC00023F0F003A068034393600D46236813F0BA
:104ED000010F32D06368012B21D09A1E012A25D9F7
:104EE000354A126812F0020F61D033498A6822F005
:104EF000030213438B60FDF7E5F906462E4B9B68D2
:104F000003F00C036268B3EB820F16D0FDF7DAF9F9
:104F1000801B41F288339842F0D90320B8E7264A33
:104F2000126812F4003FE0D10120B1E7224A126872
:104F300012F0007FD9D10120AAE71E4B1B6803F0B5
:104F40000703AB4209D9EAB21A4B1A701B6803F087
:104F50000703AB4201D001209AE7236813F0040F46
:104F600006D0154A936823F4E053E1680B4393603D
:104F7000236813F0080F07D00F4A936823F46043A7
:104F8000216943EAC1039360FFF702FF0A4B9B6864
:104F9000C3F30313094AD35CD840094B1860094B8B
:104FA0001868FDF745F9002072E7012070470120DD
:104FB0006EE700BF003C024000380240049B00083E
:104FC0001800002020000020014B1868704700BF27
:104FD0001800002008B5FFF7F7FF044B9B68C3F3E8
:104FE0008223034AD35CD84008BD00BF003802408A
:104FF000149B000808B5FFF7E7FF044B9B68C3F359
:105000004233034AD35CD84008BD00BF0038024099
:10501000149B00082DE9F04B04460268136923F441
:105020004053C1680B4313618368026913434269AB
:105030001343C2691A430168CB6823F4164323F073
:105040000C031343CB600268536923F440738169F6
:105050000B43536103683A4A934206D002F58062DB
:10506000934202D0FFF7B6FF01E0FFF7C3FFE36909
:10507000B3F5004F30D04FF00009061849EB09078F
:1050800016EB000B47EB090C4FEACC0343EA5B73CA
:105090004FEACB0293469C4663689A009B0F10EB45
:1050A0000B0049EB0C01FBF7B9FC264DA5FB0032C8
:1050B0005109642202FB110213013233A5FB0323C1
:1050C0005B0903F0F00202EB011203F00F03216809
:1050D00013448B60BDE8F08B83464FF0000C06183C
:1050E0004CEB0C0716EB000847EB0C094FEAC90321
:1050F00043EA58734FEAC802904699466268002115
:10510000921841EB01031BEB08004CEB0901FBF784
:1051100085FC0C4DA5FB00325109642202FB1102F3
:10512000D3003233A5FB03235B095A0002F4F87263
:1051300002EB011203F00703216813448B60C9E7F7
:10514000001001401F85EB5158B310B5044690F88C
:105150003D300BB3242384F83D302268D36823F418
:105160000053D3602046FFF755FF2268136923F4EC
:10517000904313612268536923F02A035361226824
:10518000D36843F40053D36000202064202384F8C4
:105190003D3084F83E3010BD80F83C30FCF7CCFF49
:1051A000D8E7012070470000DFF834D00D480E49E1
:1051B0000E4A002302E0D458C4500433C4188C4271
:1051C000F9D30B4A0B4C002301E013600432A242D6
:1051D000FBD3FDF723F800F017F8FCF783F97047CD
:1051E0000000022000000020F4010020209E0008A2
:1051F000F4010020280A0020FEE70000014B186897
:10520000704700BF2400002070B50D4E0D4CA41B4C
:10521000A4100025A54209D10B4E0C4C02F05CF8FD
:10522000A41BA4100025A54205D170BD56F8253059
:1052300098470135EEE756F8253098470135F2E7F3
:10524000189E0008189E0008189E00081C9E000862
:1052500002440346934200D1704703F8011BF9E76B
:105260002DE9FF4755EC104B0D9FDDF830A0002DC8
:105270000E4691461946B8BF22462B4627F0200716
:10528000BBBF05F100431D4600232D23B8BF1446C4
:10529000462F0B7004D0452F00D10136022100E0CB
:1052A000032103AB019302AB00933246534645EC16
:1052B000104B00F0DDFC472F804602D119F0010FA2
:1052C00026D0462F08EB060911D198F80030302B74
:1052D0000AD10022002320462946FBF7CFFD18B94A
:1052E000C6F10106CAF80060DAF8003099440022DD
:1052F000002320462946FBF7C1FD38B93022039B25
:105300004B4505D2591C03911A70F8E7CDF80C9063
:10531000039B0E9AA3EB08034046136004B0BDE85C
:10532000F087F7B500290446BABF49422D232B2345
:10533000092904F8022B437020DD0DF107031F46F5
:105340000A2691FBF6F506FB15113031092D03F8FD
:10535000011C03F1FF32294609DC3031023B02F81F
:10536000011CBB42224604D3101A03B0F0BD134601
:10537000E7E713F8012B04F8012BF2E73023194477
:105380008370021DC170EFE72DE9F04F8DB00C4620
:10539000DDF8588016461F46054601F021FA0368DD
:1053A00004931846FBF7BAFC00230A93D8F80030A0
:1053B0000590073323F0070303F1080294F818A0BF
:1053C000D4F800B0C8F80020D3E90023C4E91223C0
:1053D000D4E9128929F000430793CDF818804FF0E3
:1053E000FF32A74BDDE90601FBF77AFD70BB4FF0FA
:1053F000FF32A34BDDE90601FBF754FD30BB002271
:10540000002340464946FBF743FD10B12D2384F8A5
:1054100043309C4A9C4BBAF1470F8CBF904698464C
:1054200003232BF00402236122604FF00009009750
:1054300033460BAA2146284600F0E6F9013040F039
:105440008D804FF0FF300DB0BDE8F08F42464B46E7
:1054500040464946FBF744FD10B18C4A8C4BDAE7D5
:1054600061684B1C4BF480620AA83ED1062363603E
:105470000023CDE9020309AB009349EC108B0DF139
:1054800023032260CDF804A061682846FFF7E8FEF8
:105490000AF0DF03472B804609D1099BD81C02DBA9
:1054A0006268934247DDAAF1020A5FFA8AFABAF10A
:1054B000650F099924D80139524604F15000099129
:1054C000FFF72FFF0A9A1318012A8146236102DC95
:1054D0002268D10701D5013323619DF82330002BC9
:1054E000A5D02D2384F84330A1E7BAF1670F00F06F
:1054F0007781BAF1470FBBD10029B9D10123B6E7B3
:10550000BAF1660F19D1002963680CDD216113B966
:105510002268D20702D501330B442361099BA3659E
:105520004FF00009D9E713B92268D00701D502333B
:10553000F3E70123F1E74FF0670ADDE9093293420F
:1055400005DB22682361D107E8D50133E5E7002BAD
:10555000D4BFC3F1020301231344DEE723685A05D5
:1055600007D42369424631462846B84701302BD13B
:1055700067E7BAF1650F40F2DC8000220023D4E92E
:105580001201FBF77BFC002833D00123414A31464E
:105590002846B84701303FF454AFDDE909239A4269
:1055A00002DB2368D8070FD5DDE9042331462846FE
:1055B000B84701303FF445AF4FF0000804F11A0935
:1055C0000A9B013B434509DC23689B0700F10381EB
:1055D000E0680B9B9842B8BF184634E701234A465F
:1055E00031462846B84701303FF42BAF08F1010897
:1055F000E6E7099B002B2BDC0123264A314628468F
:10560000B84701303FF41DAF099B23B90A9B13B97A
:105610002368D907D8D5DDE9042331462846B847A1
:1056200001303FF40EAF4FF0000904F11A0A099B54
:105630005B424B4501DC0A9B94E70123524631460D
:105640002846B84701303FF4FCAE09F10109EEE706
:105650000A9AA36D9A42A8BF1A46002A914607DD0E
:105660001346314642462846B84701303FF4E9AE7A
:1056700004F11A034FF0000B29EAE979069315E0CB
:10568000FFFFEF7FB49B0008B09B0008BC9B0008A5
:10569000B89B0008C09B00080123069A31462846A3
:1056A000B84701303FF4CDAE0BF1010BD4F858A050
:1056B000AAEB09035B45EFDCDDE909239A42D044FC
:1056C00015DB2368DA0712D40A9B0999A3EB0A02B7
:1056D000A3EB010A9245A8BF9246BAF1000F0EDC77
:1056E0004FF000082AEAEA7A04F11A0919E0DDE924
:1056F000042331462846B8470130E5D1A1E6534698
:10570000424631462846B8470130E9D199E601239F
:105710004A4631462846B84701303FF492AE08F178
:105720000108DDE909239B1AA3EB0A034345EEDCDC
:105730004AE70A9A012A01DCDB073AD501234246EF
:1057400031462846B84701303FF47BAEDDE90423FB
:1057500031462846B847013008F101083FF471AEE0
:105760000A9B002203F1FF3AD4E912010023FBF760
:1057700085FBC8B95346424631462846B8470130F2
:105780000ED15EE60123524631462846B847013025
:105790003FF457AE08F101080A9B013B4345F1DC99
:1057A0004B4604F15002DEE64FF0000804F11A0AFD
:1057B000F2E70123DFE701234A4631462846B8478E
:1057C00001303FF43EAE08F10108E3680B9A9B1AE2
:1057D0004345F0DCFCE64FF0000804F11909F4E75A
:1057E00000293FF48BAE0023CDE9020309AB0093FF
:1057F00049EC108B2260CDF804A00DF1230328465C
:10580000FFF72EFD804648E62DE9F04791461F46FA
:105810008A680B69DDF820809342B8BF1346C9F847
:10582000003091F8432006460C4612B10133C9F806
:1058300000302368990642BFD9F800300233C9F816
:105840000030256815F0060507D104F1190AE36850
:10585000D9F800209B1AAB4228DC94F84330226828
:10586000003318BF012392062DD404F143023946B8
:105870003046C047013020D02368E568D9F80020C1
:1058800003F00603042B08BFAD1AA36822690CBFFE
:1058900025EAE57500259342C4BF9B1AED184FF029
:1058A00000091A344D451AD1002008E00123524660
:1058B00039463046C047013003D14FF0FF30BDE8D4
:1058C000F0870135C3E7E1185A1C302081F8430006
:1058D000224494F8451082F843100233C5E70123AF
:1058E000224639463046C0470130E6D009F1010969
:1058F000D8E700002DE9F04301F1430C0C46097E86
:1059000085B06E291746064698460C9A00F0B3807B
:1059100022D8632936D00AD8002900F0B980582946
:1059200000F0838004F1420584F8421032E06429DB
:1059300001D06929F6D120681368050603F1040136
:105940002AD51B681160002B03DA2D225B4284F8F4
:1059500043206F480A2239E0732900F09D8008D85F
:105960006F2920D07029DDD1236843F02003236004
:1059700003E0752917D07829D4D1782384F84530ED
:10598000644855E01368191D1B68116004F1420555
:1059900084F8423001238CE01B68116010F0400F46
:1059A00018BF1BB2CFE713682568181D10602806C2
:1059B00001D51B6802E06806FBD51B8854486F2997
:1059C00014BF0A220822002184F843106568A560EC
:1059D000002DC0F29580216821F004012160002B88
:1059E0003DD1002D40F08E806546082A0BD12368FA
:1059F000DB0708D5236962689A42DEBF302305F8C9
:105A0000013C05F1FF35ACEB05032361CDF80080C7
:105A10003B4603AA21463046FFF7F6FE01304DD142
:105A20004FF0FF3005B0BDE8F083394884F84510E9
:105A3000136821681D1D1B6815600A060BD5CA076F
:105A400044BF41F0200121601BB9226822F02002EE
:105A500022601022B7E74D0648BF9BB2EFE76546CC
:105A6000B3FBF2F102FB1133C35C05F8013D0B46B9
:105A70000029F5D1B9E7136825686169181D106020
:105A800028061B6801D5196002E06A06FBD519805B
:105A9000002323616546B9E71368191D11601D686D
:105AA000626800212846FBF743F908B1401B60609B
:105AB00063682361002384F84330A7E723692A46FB
:105AC00039463046C0470130AAD023689B0713D41B
:105AD000E068039B9842B8BF1846A3E701234A46F3
