:020000040800F2
:1000000000000220612300082523000827230008A0
:10001000292300082B2300082D23000800000000DE
:100020000000000000000000000000002F23000876
:1000300031230008000000003323000835230008A6
:10004000B1230008B1230008B1230008B123000840
:10005000B1230008B1230008B1230008B123000830
:10006000B1230008B1230008B1230008B123000820
:10007000B1230008B1230008B1230008B123000810
:10008000B1230008B1230008B123000800000000DC
:10009000000000000000000000000000B123000884
:1000A000B1230008B1230008B1230008B1230008E0
:1000B000B1230008B1230008B12300083D23000844
:1000C000B1230008B1230008B1230008B1230008C0
:1000D000B1230008B1230008B1230008000000008C
:1000E000B1230008B1230008B1230008000000007C
:1000F000000000000000000000000000B123000824
:1001000000000000B1230008B1230008B12300085B
:1001100000000000000000000000000000000000DF
:10012000B1230008B1230008B1230008B12300085F
:10013000B1230008000000000000000000000000E3
:10014000000000000000000000000000B1230008D3
:10015000B1230008B1230008B1230008B12300082F
:10016000B1230008B12300080000000000000000D7
:10017000000000000000000000000000000000007F
:1001800000000000B1230008000000000000000093
:08019000B1230008B1230008AF
:1001980010B5054C237833B9044B13B10448AFF3B9
:1001A80000800123237010BD0C0000200000000017
:1001B8000C24000808B5034B1BB103490348AFF3EF
:1001C800008008BD00000000100000200C2400087A
:1001D80053B94AB9002908BF00281CBF4FF0FF31A6
:1001E8004FF0FF3000F072B9ADF1080C6DE904CEA4
:1001F80000F006F8DDF804E0DDE9022304B07047FA
:100208002DE9F047089E04468846002B4BD18A42C8
:10021800154667D9B2FA82F24AB1C2F1200701FA4B
:1002280002F320FA07F7954047EA030894404FEA9B
:10023800154E230CB8FBFEF71FFA85FC0EFB17883A
:1002480043EA084307FB0CF1994209D9EB1807F177
:10025800FF3080F01B81994240F21881023F2B4405
:100268005B1AA4B2B3FBFEF00EFB103344EA03445E
:1002780000FB0CFCA44509D92C1900F1FF3380F0D0
:100288000781A44540F2048102382C4440EA074023
:10029800A4EB0C0400271EB1D4400023C6E9004398
:1002A8003946BDE8F0878B4209D9002E00F0EB8073
:1002B8000027C6E9000138463946BDE8F087B3FA99
:1002C80083F7002F47D18B4202D3824200F2FA8093
:1002D800841A61EB030301209846002EE0D0C6E99A
:1002E8000048DDE702B9FFDEB2FA82F2002A40F0E8
:1002F8008F80491B4FEA154E1FFA85F80127B1FB7D
:10030800FEFC230C0EFB1C1143EA014308FB0CF115
:10031800994207D9EB180CF1FF3002D2994200F24A
:10032800CD808446591AA3B2B1FBFEF00EFB10141F
:1003380043EA044408FB00F8A04507D92C1900F14A
:10034800FF3302D2A04500F2B6801846A4EB080499
:1003580040EA0C409FE7C7F1200CBB4022FA0CFE94
:100368004EEA030E01FA07F420FA0CF521FA0CF311
:100378004FEA1E482543B3FBF8F92C0C08FB193348
:100388001FFA8EFA44EA034309FB0AF49C4202FA74
:1003980007F200FA07F10BD91EEB030309F1FF304E
:1003A80080F087809C4240F28480A9F1020973445E
:1003B8001B1BADB2B3FBF8F008FB103345EA03444E
:1003C80000FB0AFAA24508D91EEB040400F1FF332A
:1003D8006BD2A24569D90238744440EA0940A0FBAF
:1003E8000289A4EB0A044C45C2464B4654D351D06B
:1003F800002E69D0B1EB0A0564EB030404FA0CFC87
:10040800FD40FC404CEA0505C6E90054002747E7D3
:10041800C2F1200320FA03F7954001FA02F021FA0D
:1004280003F34FEA154E3843010CB3FBFEF71FFAEE
:1004380085F80EFB173341EA034107FB08F38B42AB
:1004480004FA02F407D9691807F1FF3C2FD28B424E
:100458002DD9023F2944CB1A81B2B3FBFEF00EFB23
:10046800103341EA034100FB08F38B4207D96918AE
:1004780000F1FF3C17D28B4215D902382944C91A1A
:1004880040EA07473BE73746304609E70746E7E6CD
:100498001846FBE64145ABD2B8EB020A69EB0E02FF
:1004A80001381346A4E76046E9E7184695E767462A
:1004B800D1E781467CE702382C4447E7ACF1020CCF
:1004C8002B442FE7384608E73746E9E6704700BF70
:1004D80010B504460E4B18784FF47A73B3FBF0F35B
:1004E8000C4A1068B0FBF3F000F096F868B90F2CCE
:1004F80001D901200AE0002221464FF0FF3000F028
:1005080049F8034B5C60002000E0012010BD00BFEB
:10051800000000200800002008B50B4B1A6842F4C0
:1005280000721A601A6842F480621A601A6842F40B
:1005380080721A60032000F01BF80020FFF7C8FF44
:1005480001F054FE002008BD003C0240034A116837
:10055800034B1B780B441360704700BF2800002032
:1005680000000020014B1868704700BF28000020D9
:10057800074AD36823F4E0631B041B0C000200F451
:10058800E060184340F0BF6040F40030D06070472E
:1005980000ED00E030B4174BDB68C3F30223C3F16E
:1005A8000704042C28BF04241D1D062D18D9033B5D
:1005B8004FF0FF3505FA04F421EA0401994005FAE1
:1005C80003F322EA0303194300280BDB0901C9B22C
:1005D80000F1604000F5614080F8001330BC7047BE
:1005E8000023E5E700F00F000901C9B2024B1954D6
:1005F800F4E700BF00ED00E014ED00E0002807DBA1
:1006080000F01F02400901239340024A42F82030BB
:10061800704700BF00E100E00138B0F1807F0AD2E6
:10062800064B5860064AF02182F823100020986093
:1006380007221A6070470120704700BF10E000E0F1
:1006480000ED00E090F83530DBB2022B03D08023B8
:10065800436501207047052380F835300268136828
:1006680023F0010313600020704790F835007047AD
:1006780000230F2B00F2CA80F0B482B05DE08668D8
:100688005F000324BC4026EA0406CC68BC4034431F
:100698008460466826EA02064C68C4F300129A4051
:1006A8003243426056E0DC08083450F8247003F006
:1006B800070296000F22B24027EA02070A69B240F1
:1006C8003A4340F8242059E0042200E00022B240D6
:1006D8003A4302344E4E46F824204E4A1468EA4300
:1006E80002EA04064F6817F4803F01D045EA040681
:1006F800484C2660646802EA04064F6817F4003F15
:1007080001D045EA0406434C6660A46802EA040680
:100718004F6817F4801F01D045EA04063D4CA660D7
:10072800E46822404E6816F4001F01D045EA04022E
:10073800384CE26001330F2B65D801229A400C68CF
:1007480004EA0205AA42F5D14C6804F00304013C0E
:10075800012C94D94A6802F00302032A09D0C4681C
:100768005E000322B24024EA02048A68B2402243AF
:10077800C2604A6802F00302022A94D004685E004C
:100788000322B24024EA02044A6802F00302B2409B
:10079800224302604A6812F4403FCBD00022019203
:1007A8001D4A546C44F480445464526C02F48042F0
:1007B8000192019A9C08A61C154A52F8267003F06B
:1007C800030296000F22B24027EA0207134A90421A
:1007D8003FF47CAF02F5806290420ED002F5806251
:1007E80090420CD002F5806290420AD002F58062F5
:1007F80090423FF469AF072269E7012267E70222C6
:1008080065E7032263E702B0F0BC7047704700BF9A
:1008180000380140003C014000380240000002401E
:1008280012B90904816170478161704790F83E30C0
:10083800DBB2402B0AD00369B3F5804F15D0036DA6
:10084800002B34D0036D012B3BD07047036D2BB9BF
:10085800436C026803F0FE0313617047436C02683F
:1008680043F00103DBB21361704790F83D30DBB20F
:10087800212B0FD0436C026843F00103DBB21361F4
:10088800436B6BB1DB6B5BB10268536843F4006385
:1008980053607047436C026803F0FE031361EFE78F
:1008A800836B002BD1D0DB6B002BEDD1CDE7436CF4
:1008B800C3F3C813026803F0060343F0F00313619F
:1008C8007047436CC3F3C813026803F0060343F090
:1008D800F1031361B9E7436C0268DBB21361436B40
:1008E8003BB1DB6B2BB10268536843F40063536080
:1008F8007047836B002BFBD0DB6B002BF3D1F7E742
:1009080010B48BB090F83E30DAB2C16A046B90F83C
:100918003D30DBB2222B0BD00023099303685A69C0
:1009280009929B690993099B0BB05DF8044B7047CA
:10093800036D0BB9402A17D0036D1BB90369B3F5D2
:10094800404F19D0438D9BB2002B25D102930368E9
:100958005A6902929A690292029A1A6842F40072DB
:100968001A6000230365DFE7009303685A69009261
:100978009B690093009BD7E70023019303685A699A
:1009880001929A690192019A1A6842F480721A6077
:10099800036D01330365C7E7438D9BB2012B25D057
:1009A800438D9BB2022B7BD00268136843F48063AB
:1009B800136003685A6812F4006F0ED011F5803F77
:1009C80007D0012905D0082903D0102901D02029F2
:1009D80003D15A6842F480525A600023089303688E
:1009E8005A6908929B690893089BBAE711F5803FFA
:1009F80011D0082934D0202932D0122C2ED0042925
:100A080040D002293ED010293CD00268136823F454
:100A1800806313603BE00268136823F4806313600B
:100A280003685A6812F4006F0CD01A6822F48062C6
:100A38001A600023039303685A6903929B6903931E
:100A4800039B8EE7002204925A6904929A690492E1
:100A5800049A1A6842F400721A6082E70129CED01B
:100A68000268136823F48063136000230693036805
:100A78005A6906929A690692069A1A6842F40072AE
:100A88001A606EE70268136843F4806313600023FA
:100A9800059303685A6905929B690593059B60E76E
:100AA80004290ED002290CD010290AD00268136834
:100AB80023F4806313600268136843F400631360CF
:100AC80004E00268136843F48063136003685A689B
:100AD80012F4006F0ED011F5803F07D0012905D020
:100AE800082903D0102901D0202903D15A6842F4DB
:100AF80080525A600023079303685A6907929B69DA
:100B08000793079B2DE7438D9BB253B1426A036855
:100B180012781A61436A01334362438D013B9BB2E9
:100B280043857047438D9BB253B103681A69436A82
:100B38001A70436A01334362438D013B9BB243857C
:100B48007047000082B0002301930E4B1B68DB083E
:100B58000D4AA2FB03231B0A03EB83030193019BAA
:100B6800013B0193019B33B103681B6813F4007FB9
:100B7800F5D1002004E0036C43F020030364012056
:100B880002B070470800002089B5F814C36AB3F5AD
:100B98002A0F04D0C36AB3F12A4F03D07047012348
:100BA800C36270470823C362F8E70000002800F01A
:100BB800C880F8B5044690F83D30002B75D0242342
:100BC80084F83D302268136823F00103136022681B
:100BD800136843F4004313602268136823F4004346
:100BE800136001F031F96268584B9A4262D8584B49
:100BF80098428CBF00230123002B40F0A480554B62
:100C0800A3FB00239B0C21684A6822F03F021A4389
:100C18004A6025682A6A22F03F0266684B498E427C
:100C28004ED8013313432B622568E96921F44F41FB
:100C380021F0FF016368454A93424BD801385B00B5
:100C4800B0FBF3F30133C3F30B03042B38BF0423C6
:100C58000B43EB6121680B6823F0C003E269206A4B
:100C6800024313430B6021688B6823F4034323F08A
:100C7800FF032269E068024313438B602168CB6855
:100C880023F0FF036269A06902431343CB60226823
:100C9800136843F00103136000202064202384F8C4
:100CA8003D30206384F83E00F8BD80F83C3001F008
:100CB800BDFA84E7284B98428CBF002301239BE7A9
:100CC8004FF4967101FB03F32449A1FB03139B091D
:100CD8000133A7E7A268BAB9461E03EB4307B6FB80
:100CE800F7F60136C6F30B06B6FA86F6760936BB72
:100CF800C2B9013803EB4303B0FBF3F30133C3F389
:100D08000B0242F40043A3E7461E03EB830707EBFD
:100D18008707B6FBF7F60136C6F30B06B6FA86F672
:100D28007609E4E7013803EB830303EB8303B0FBA5
:100D3800F3F20132C2F30B0242F4404388E7012385
:100D480086E7012070470120AEE700BFA0860100BA
:100D58007F841E0083DE1B43FF083D00D34D6210D5
:100D680070477047704708B590F83D30DAB2438D48
:100D78009BB27BB1416A036809781961436A013300
:100D88004362438D013B9BB24385438D9BB20BB9B4
:100D9800292A00D008BD0268536823F48063536091
:100DA80021230363282380F83D30FFF7DBFFF1E7B9
:100DB800704708B590F83D30DAB2438D9BB27BB1ED
:100DC80003681969436A1970436A01334362438DA2
:100DD800013B9BB24385438D9BB20BB92A2A00D0B5
:100DE80008BD0268536823F48063536022230363B9
:100DF800282380F83D30FFF7DBFFF1E7704700B5A7
:100E080083B090F83D3003F02803282B0CD0002342
:100E1800019302685169019192690192019A80F8DF
:100E28003C3003B05DF804FB0268536823F4806328
:100E3800536011F0040F0BD0002311F0800F09D17B
:100E48008289002180F83C101946FFF7D7FFE8E7B0
:100E58000123F2E7028BF4E77047704708B5C26ACE
:100E680090F83D30DBB2212B00D008BD438D9BB2FA
:100E780003BB082A04D0202A02D012F5803F25D1CE
:100E88000268536823F4E06353600268136843F40C
:100E98000073136000230363202380F83D3090F82B
:100EA8003E30DBB2402B21D0002380F83E30FFF7E4
:100EB80057FFDAE7426A036812781A61436A013316
:100EC8004362438D013B9BB24385CEE7026853687A
:100ED80023F4E063536011230363002380F83E305A
:100EE800202380F83D30FFF73BFFBEE7002380F862
:100EF8003E30FFF7B2FFB8E708B590F83D30026D15
:100F08009AB9C36C012B08D0836CC3F3072302681A
:100F18001361036D0133036508BD836C0268DBB29E
:100F28001361036D02330365F6E7DBB2026D012A34
:100F380023D0026D022AEFD1222B26D0428D92B205
:100F48000AB1212B2AD0428D92B2002AE4D1212B5A
:100F5800E2D10268536823F4E063536002681368BF
:100F680043F40073136000230363202280F83D20BC
:100F780080F83E30FFF771FFCEE7836C0268DBB282
:100F88001361036D01330365C6E70268136843F410
:100F980080731360036D01330365BDE7426A03681C
:100FA80012781A61436A01334362438D013B9BB255
:100FB8004385B1E710B590F83D30DBB290F83E209C
:100FC800D2B2C46A018D09B9212B04D0212B3BD0A0
:100FD800402A37D010BD082C04D0202C02D014F59C
:100FE800803F19D10268536823F4E06353600268B4
:100FF800136843F40073136000230363202380F80D
:101008003D3090F83E30DBB2402B15D0002380F8FD
:101018003E30FFF7A5FEDDE70268536823F4E0637E
:10102800536011230363002380F83E30202380F8A7
:101038003D30FFF795FECDE7002380F83E30FFF7FF
:101048000CFFC7E7222BC5D1438D9BB283B190F823
:101058003E30DBB2402B11D0426A036812781A6125
:10106800436A01334362438D013B9BB24385B1E739
:101078000268536823F480635360ABE7FFF73CFFD3
:10108800A8E7704708B5C26A438D9BB2042B13D0FA
:10109800438D9BB2032B20D0438D9BB2022B36D0BD
:1010A80003681A69436A1A70436A01334362438DBD
:1010B800013B9BB243850FE00268536823F48063C9
:1010C800536003681A69436A1A70436A01334362BA
:1010D800438D013B9BB2438508BD01684B6823F4EF
:1010E80080634B60042A06D0022A04D00268136881
:1010F80023F48063136003681A69436A1A70436AA9
:1011080001334362438D013B9BB24385E4E7012AE7
:101118000BD0102A09D0042A36D0022A34D002680B
:10112800136843F40073136004E00268136823F43F
:101138008063136003681A69436A1A70426A531C11
:101148004362438D013B9BB2438503681B6953701F
:10115800436A01334362438D013B9BB24385026876
:10116800536823F440735360202380F83D3090F88F
:101178003E30DBB2402B0DD0002380F83E301223E6
:101188000363FFF7EEFDA7E70268136843F4806383
:101198001360CFE7002380F83E300363FFF771FF49
:1011A8009AE7704790F83D30DBB2222B00D07047A9
:1011B800438D9BB2032B14D903681A69436A1A70CA
:1011C800436A01334362438D013B9BB24385438DA0
:1011D8009BB2032BEBD10268536823F480635360FE
:1011E8007047C26A022AE2D0012BE0D810B5044643
:1011F800FFF7A8FC68BB2268136823F480631360B8
:101208002268536823F4E063536023681A69636AA9
:101218001A70636A01336362638D013B9BB2638515
:10122800202384F83D3094F83E30DBB2402B08D0C0
:10123800002384F83E30122323632046FFF791FDF4
:1012480010BD002384F83E3023632046FFF719FFC2
:10125800F6E72268536823F4E063536023681A6949
:10126800636A1A70636A01336362638D013B9BB2E0
:101278006385202384F83D30002384F83E302046DF
:10128800FFF78FFFDCE7704700B583B000230193B9
:10129800806B90F83D20D2B2324B1B68DB08324994
:1012A800A1FB03131B0A03EB8303C3EBC3030193E3
:1012B800019B43B1019B013B019303681B6813F435
:1012C800007FF5D103E0036C43F020030364436B14
:1012D8000BB10021D963836B0BB10021D96301687D
:1012E8000B6823F480630B6000234385436B0BB1C9
:1012F80000211965836B0BB10021196501680B6822
:1013080023F001030B6090F83D30DBB2602B0ED068
:1013180002F02802282A14D0202380F83D30002328
:1013280080F83E30FFF73DFF03B05DF804FB202353
:1013380080F83D30002380F83E300364FFF7A3FFB8
:10134800F2E70268136843F0010313600268136848
:1013580043F48063136000230363282380F83D303F
:10136800E0E700BF0800002089B5F81410B504466E
:1013780090F83D30DBB290F83E20D2B2102A36D039
:10138800402A34D003F02802282A38D0226852682C
:1013980012F4006F07D1602B05D0202384F83D306C
:1013A800002384F83E300023236323685A6812F42C
:1013B800006F48D05A6822F400625A60626B92F853
:1013C8003530DBB2012B20D0444B1365606BFFF73F
:1013D80039F9002849D02268136823F00103136003
:1013E800202384F83D30606B036D98473DE0222B45
:1013F800C8D121680A6822F400620A60C2E70023A3
:101408002363282384F83D30CFE7A36B334A1A655A
:10141800A06BFFF717F940B323685A6912F0400F21
:1014280005D01A69636A1A70636A013363622268B5
:10143800136823F001031360202384F83D30A06B68
:10144800036D984711E094F83D20D2B2602A1FD06E
:101458005A6912F0400F05D01A69636A1A70636AF4
:10146800013363622046FFF79CFE236C13F00F0FD5
:1014780004D02268536823F4E063536094F83D3045
:10148800DBB2226C12F0040F01D0282B18D010BD4B
:10149800202284F83D20002222645A6912F0400F6D
:1014A80005D01A69636A1A70636A01336362226835
:1014B800136823F0010313602046FFF7E4FED4E726
:1014C800074BE36200232363202284F83D2084F83D
:1014D8003E302046FFF7C0FCD9E700BF9112000854
:1014E8000000FFFF30B583B0044690F83D50EDB2E0
:1014F8000268536823F4E063536000230193036890
:101508005A6901921A6842F001021A60019B026846
:10151800136823F48063136003685A6812F4006F39
:1015280038D0222D21D02A2D1FD0426B1268526844
:1015380092B24285428D92B21AB1026C42F0040214
:1015480002645A6822F400625A60606BFFF78DF8F3
:1015580001281FD0636B434A1A65606BFFF772F866
:10156800C0B1606B036D984714E0A26B12685268B3
:1015780092B26285628D92B21AB1226C42F0040274
:1015880022645A6822F400625A60A06BFFF76DF873
:10159800012840D1638D9BB223B323685A6912F0A6
:1015A800040F09D01A69636A1A70636A01336362A7
:1015B800638D013B9BB2638523685A6912F0400F23
:1015C80009D01A69636A1A70636A01336362638DAA
:1015D800013B9BB26385638D9BB21BB1236C43F0C7
:1015E80004032364236C13BB2A2D25D094F83D30C3
:1015F800DBB2282B29D0236B222B01D0222D19D125
:1016080000232363202284F83D2084F83E302046BE
:10161800FFF7CEFB0EE0A36B124A1A65A06BFFF72B
:1016280011F80028B6D0A06B036D9847B2E72046A2
:10163800FFF79CFE03B030BD00232363282384F802
:101648003D302046FFF7B4FBD0E7074BE3620023A9
:101658002363202284F83D2084F83E302046FFF79B
:10166800FBFBE7E7911200080000FFFFF8B504460E
:1016780002685568C66A90F83E30DBB290F83D10B3
:10168800C8B2102B13D0402B11D0236C002B7AD06A
:101698005369002113F0020F78D015F4007F75D03C
:1016A800236C03B191692046FFF7A9FBF8BDD2F876
:1016B80018C0516911F0010705D1B6F52A0FF5D008
:1016C800B6F12A4FF2D017B115F4007F29D111F0E5
:1016D800080F02D015F4007F2AD111F0020F02D0B2
:1016E80015F4007F28D11CF0040F31D0526812F491
:1016F800006FDBD111F0800F05D015F4806F02D098
:1017080011F0040F1CD011F0040FCFD015F4007F96
:10171800CCD0212818D0402BC8D12046FFF7ECFBAD
:10172800C4E72046FFF732FA2046FFF77FF8BDE707
:101738002046FFF7D0F8B9E72046FFF7E1F8B5E70C
:101748002046FFF737FCB1E72046FFF787FBADE7F8
:10175800536813F4006FA9D111F0400F05D015F4A8
:10176800806F02D011F0040F09D011F0040F9DD042
:1017780015F4007F9AD02046FFF784FC96E72046B0
:10178800FFF710FD92E79169536983E713F0100F93
:1017980002D015F4007F18D121281AD0292818D092
:1017A80013F0400F05D015F4806F02D013F0040F2A
:1017B80028D013F0040F3FF479AF15F4007F3FF4FD
:1017C80075AF2046FFF7AEF970E72046FFF78AFEAF
:1017D8006CE713F0800F05D015F4806F02D013F07A
:1017E800040F0BD013F0040F3FF460AF15F4007F23
:1017F8003FF45CAF2046FFF786F957E72046FFF72E
:10180800B2FA53E72046FFF7D4FA4FE7002800F072
:10181800E98170B582B00446036813F0010F3BD02C
:10182800A74B9B6803F00C03042B2CD0A44B9B689C
:1018380003F00C03082B21D06368B3F5803F4FD029
:10184800B3F5A02F52D09E4B1A6822F480321A604A
:101858001A6822F480221A606368002B50D0FEF7C1
:1018680081FE0546964B1B6813F4003F14D1FEF722
:1018780079FE401B6428F5D90320B8E1904B5B68DA
:1018880013F4800FD8D08E4B1B6813F4003F03D09D
:101898006368002B00F0A881236813F0020F55D06D
:1018A800874B9B6813F00C0F3ED0854B9B6803F069
:1018B8000C03082B33D0E368002B68D0814B01223E
:1018C8001A60FEF74FFE05467D4B1B6813F0020FAA
:1018D80054D1FEF747FE401B0228F5D9032086E1C4
:1018E800774A136843F480331360B5E7744B1A687A
:1018F80042F480221A601A6842F480321A60ABE718
:10190800FEF730FE05466E4B1B6813F4003FC3D04C
:10191800FEF728FE401B6428F5D9032067E1684BD1
:101928005B6813F4800FC6D1654B1B6813F0020F78
:1019380004D0E368012B01D0012058E1604A136804
:1019480023F0F803216943EAC1031360236813F005
:10195800080F40D0636963B35B4B01221A60FEF73E
:1019680001FE0546564B5B6F13F0020F33D1FEF7AD
:10197800F9FD401B0228F5D9032038E1504A1368C5
:1019880023F0F803216943EAC1031360DEE74D4BF6
:1019980000221A60FEF7E6FD0546494B1B6813F066
:1019A800020FD3D0FEF7DEFD401B0228F5D9032035
:1019B8001DE1454B00221A60FEF7D4FD0546404B59
:1019C8005B6F13F0020F06D0FEF7CCFD401B022818
:1019D800F5D903200BE1236813F0040F79D0384BB5
:1019E8001B6C13F0805F33D100230193344B1A6CC6
:1019F80042F080521A641B6C03F080530193019BE0
:101A08000125324B1B6813F4807F23D0A368012B78
:101A180034D0052B38D02A4B1A6F22F001021A67EE
:101A28001A6F22F004021A67A368002B36D0FEF75B
:101A380099FD0646224B1B6F13F0020F48D1FEF7A3
:101A480091FD801B41F288339842F3D90320CEE000
:101A58000025D6E71D4A136843F480731360FEF728
:101A680081FD0646194B1B6813F4807FCED1FEF723
:101A780079FD801B0228F5D90320B8E0104A136FBE
:101A880043F001031367CFE70D4B1A6F42F00402CE
:101A98001A671A6F42F001021A67C5E7FEF762FD7E
:101AA8000646074B1B6F13F0020F11D0FEF75AFDC5
:101AB800801B41F288339842F3D9032097E000BF96
:101AC8000038024000004742800E47420070004044
:101AD800EDB9A369002B00F08980484A926802F0AA
:101AE8000C02082A51D0022B17D0454B00221A604D
:101AF800FEF738FD0446414B1B6813F0007F42D0C7
:101B0800FEF730FD001B0228F5D903206FE03B4AA1
:101B1800136C23F080531364DBE7394B00221A60FF
:101B2800FEF720FD0546354B1B6813F0007F06D0F5
:101B3800FEF718FD401B0228F5D9032057E0E3699A
:101B4800226A1343626A43EA8213A26A5208013A7C
:101B580043EA0243E26A43EA0263284A5360284B95
:101B680001221A60FEF7FEFC0446244B1B6813F0A2
:101B7800007F06D1FEF7F6FC001B0228F5D90320EA
:101B880035E0002033E0002031E0012B31D01B4B41
:101B98005B6803F48001E269914201D0012026E0EC
:101BA80003F03F02216A8A4201D001201FE0616AE6
:101BB80047F6C0721A40B2EB811F01D0012016E02F
:101BC80003F44031A26A5208013AB1EB024F01D046
:101BD80001200CE003F07063E26AB3EB026F0AD0F5
:101BE800012004E001207047012000E0002002B03D
:101BF80070BD0120FBE70020F9E700BF0038024074
:101C080060004742324B9B6803F00C03042B5CD006
:101C1800082B01D02F4870472DE9F04B2C4B5A6800
:101C280002F03F025B6813F4800F2BD0284B5B68EF
:101C3800C3F388131E4600275C010025E41A65EBF0
:101C48000705A90141EA9461A001001B61EB0501A8
:101C5800CB0043EA5073C400A01943EB07014B02C1
:101C680043EAD0534402204619460023FEF7B0FA4F
:101C7800174B5B68C3F3014301335B00B0FBF3F020
:101C8800BDE8F08B124B5B68C3F388131E46002730
:101C98005C010025E41A65EB0705A90141EA946196
:101CA800A001001B61EB0501CB0043EA5073C4009F
:101CB800A01943EB07018B0243EA905384022046A4
:101CC80019460023FEF784FAD2E70348704700BF9D
:101CD800003802400024F40000127A00002800F0C6
:101CE8009E8070B50446504B1B6803F007038B4277
:101CF80009D2CBB24C4A1370136803F007038B4226
:101D080001D0012070BD236813F0020F17D013F023
:101D1800040F04D0454A936843F4E0539360236862
:101D280013F0080F04D0414A936843F4604393606A
:101D38003E4A936823F0F003A068034393600D467E
:101D4800236813F0010F32D06368012B21D09A1E4B
:101D5800012A25D9354A126812F0020F61D0334999
:101D68008A6822F0030213438B60FEF7FBFB0646EA
:101D78002E4B9B6803F00C036268B3EB820F16D0FE
:101D8800FEF7F0FB801B41F288339842F0D903201C
:101D9800B8E7264A126812F4003FE0D10120B1E703
:101DA800224A126812F0007FD9D10120AAE71E4BFF
:101DB8001B6803F00703AB4209D9EAB21A4B1A7041
:101DC8001B6803F00703AB4201D001209AE72368A0
:101DD80013F0040F06D0154A936823F4E053E16822
:101DE8000B439360236813F0080F07D00F4A9368DA
:101DF80023F46043216943EAC1039360FFF702FFBC
:101E08000A4B9B68C3F30313094AD35CD840094BB8
:101E18001860094B1868FEF75BFB002072E7012089
:101E2800704701206EE700BF003C024000380240C6
:101E3800242400080800002004000020014B186832
:101E4800704700BF0800002008B5FFF7F7FF044BF4
:101E58009B68C3F38223034AD35CD84008BD00BF04
:101E6800003802403424000808B5FFF7E7FF044BA8
:101E78009B68C3F34233034AD35CD84008BD00BF14
:101E880000380240342400082DE9F04B044602686B
:101E9800136923F44053C1680B43136183680269D3
:101EA800134342691343C2691A430168CB6823F498
:101EB800164323F00C031343CB600268536923F4E1
:101EC800407381690B43536103683A4A934206D0D1
:101ED80002F58062934202D0FFF7B6FF01E0FFF7F8
:101EE800C3FFE369B3F5004F30D04FF0000906187F
:101EF80049EB090716EB000B47EB090C4FEACC033B
:101F080043EA5B734FEACB0293469C4663689A00A8
:101F18009B0F10EB0B0049EB0C01FEF759F9264D0E
:101F2800A5FB00325109642202FB1102130132336E
:101F3800A5FB03235B0903F0F00202EB011203F097
:101F48000F03216813448B60BDE8F08B83464FF084
:101F5800000C06184CEB0C0716EB000847EB0C09B5
:101F68004FEAC90343EA58734FEAC80290469946B4
:101F780062680021921841EB01031BEB08004CEB4F
:101F88000901FEF725F90C4DA5FB00325109642221
:101F980002FB1102D3003233A5FB03235B095A006D
:101FA80002F4F87202EB011203F0070321681344EC
:101FB8008B60C9E7001001401F85EB5158B310B57D
:101FC800044690F83D300BB3242384F83D30226852
:101FD800D36823F40053D3602046FFF755FF2268E7
:101FE800136923F4904313612268536923F02A0389
:101FF80053612268D36843F40053D36000202064FF
:10200800202384F83D3084F83E3010BD80F83C3001
:1020180000F04CF9D8E701207047000030B58BB0CC
:102028000024059406940794089409940194224B7B
:102038001A6B42F004021A631A6B02F0040201924E
:10204800019A02941A6B42F080021A631A6B02F02A
:1020580080020292029A03941A6B42F001021A63F8
:102068001A6B02F001020392039A04941A6B42F06D
:1020780002021A631B6B03F002030493049B0F4DC7
:10208800224620212846FEF7CBFB4FF40053059348
:102098004FF404130693079405A90948FEF7E8FAD4
:1020A80020230593012306930794089405A928463D
:1020B800FEF7DEFA0BB030BD0038024000000240E7
:1020C8000008024072B6FEE708B50A480A4B0360EA
:1020D8000A4B436000238360C3604FF4804202616F
:1020E80043618361C3610362FEF760FD00B908BD07
:1020F800FFF7E8FF2C00002000540040801A06007B
:1021080008B50A480A4B03604FF4E13343600023E3
:102118008360C36003610C2242618361C361FFF77E
:102128004DFF00B908BDFFF7CDFF00BF80000020BC
:102138000044004000B595B03022002108A800F006
:1021480059F9002303930493059306930793019386
:102158001E4A116C41F080511164126C02F08052D9
:102168000192019A02931A4A116841F440411160A0
:10217800126802F440420292029A02210891012256
:102188000B9210220C920E910F9310924FF4A87399
:10219800119304231293139308A8FFF737FB80B910
:1021A8000F23039302210491002305934FF48052D7
:1021B8000692079303A8FFF791FD20B915B05DF8C3
:1021C80004FBFFF77FFFFFF77DFF00BF00380240E9
:1021D8000070004008B5FEF79FF9FFF7ABFFFFF767
:1021E8001DFFFFF771FFFFF78BFFFEE700B583B018
:1021F800002100910C4B5A6C42F480425A645A6C8C
:1022080002F480420092009A01911A6C42F08052C6
:102218001A641B6C03F080530193019B0720FEF79F
:10222800A7F903B05DF804FB0038024030B589B067
:102238000023039304930593069307930268184BAE
:102248009A4201D009B030BD00250195154C236B89
:1022580043F002032363236B03F002030193019B02
:10226800C0230393122304930323069304230793A1
:1022780003A90D48FEF7FCF90295236C43F40013FB
:102288002364236C03F400130293029B2A46294615
:102298001F20FEF77FF91F20FEF7B0F9D2E700BF35
:1022A80000540040003802400004024000B589B0E4
:1022B8000023039304930593069307930268154B31
:1022C8009A4202D009B05DF804FB0021019103F5A0
:1022D800FA331A6C42F400321A641A6C02F40032AF
:1022E8000192019A02911A6B42F001021A631B6B68
:1022F80003F001030293029B0C230393022304932C
:10230800032306930723079303A90348FEF7B0F9AD
:10231800D8E700BF0044004000000240FEE7FEE7A7
:10232800FEE7FEE7FEE770477047704708B5FEF71F
:102338000DF908BD08B50248FFF798F908BD00BFB8
:102348002C000020034AD2F8883043F47003C2F806
:102358008830704700ED00E0DFF834D00D480E49B2
:102368000E4A002302E0D458C4500433C4188C42E7
:10237800F9D30B4A0B4C002301E013600432A2424C
:10238800FBD3FFF7DFFF00F011F8FFF723FF7047DB
:1023980000000220000000200C0000204C2400084F
:1023A8000C000020C4000020FEE7000070B50D4EB0
:1023B8000D4CA41BA4100025A54209D10B4E0C4CB2
:1023C80000F020F8A41BA4100025A54205D170BD7B
:1023D80056F8253098470135EEE756F825309847E6
:1023E8000135F2E744240008442400084424000886
:1023F8004824000802440346934200D1704703F87A
:10240800011BF9E7F8B500BFF8BC08BC9E46704749
:0C241800F8B500BFF8BC08BC9E46704739
:102424000000000000000000010203040607080980
:08243400000000000102030496
:08243C00CCDDFF7F0100000070
:04244400BD010008CE
:0424480099010008EE
:0C244C0001000000100000000024F4005B
:04000005080023616B
:00000001FF
